{
  "contractName": "ChainList",
  "abi": [
    {
      "constant": true,
      "inputs": [
        {
          "name": "",
          "type": "address"
        },
        {
          "name": "",
          "type": "uint256"
        }
      ],
      "name": "dataListByAccount",
      "outputs": [
        {
          "name": "id",
          "type": "uint256"
        },
        {
          "name": "seller",
          "type": "address"
        },
        {
          "name": "buyer",
          "type": "address"
        },
        {
          "name": "name",
          "type": "string"
        },
        {
          "name": "description",
          "type": "string"
        },
        {
          "name": "price",
          "type": "uint256"
        },
        {
          "name": "ipfsAddress",
          "type": "string"
        },
        {
          "name": "isForSale",
          "type": "bool"
        }
      ],
      "payable": false,
      "stateMutability": "view",
      "type": "function"
    },
    {
      "constant": true,
      "inputs": [
        {
          "name": "",
          "type": "uint256"
        }
      ],
      "name": "dataList",
      "outputs": [
        {
          "name": "id",
          "type": "uint256"
        },
        {
          "name": "seller",
          "type": "address"
        },
        {
          "name": "buyer",
          "type": "address"
        },
        {
          "name": "name",
          "type": "string"
        },
        {
          "name": "description",
          "type": "string"
        },
        {
          "name": "price",
          "type": "uint256"
        },
        {
          "name": "ipfsAddress",
          "type": "string"
        },
        {
          "name": "isForSale",
          "type": "bool"
        }
      ],
      "payable": false,
      "stateMutability": "view",
      "type": "function"
    },
    {
      "anonymous": false,
      "inputs": [
        {
          "indexed": true,
          "name": "_id",
          "type": "uint256"
        },
        {
          "indexed": true,
          "name": "_seller",
          "type": "address"
        },
        {
          "indexed": false,
          "name": "_name",
          "type": "string"
        },
        {
          "indexed": false,
          "name": "_price",
          "type": "uint256"
        },
        {
          "indexed": false,
          "name": "_ipfsAddress",
          "type": "string"
        }
      ],
      "name": "LogSellData",
      "type": "event"
    },
    {
      "anonymous": false,
      "inputs": [
        {
          "indexed": true,
          "name": "_id",
          "type": "uint256"
        },
        {
          "indexed": true,
          "name": "_seller",
          "type": "address"
        },
        {
          "indexed": true,
          "name": "_buyer",
          "type": "address"
        },
        {
          "indexed": false,
          "name": "_name",
          "type": "string"
        },
        {
          "indexed": false,
          "name": "_price",
          "type": "uint256"
        },
        {
          "indexed": false,
          "name": "_ipfsAddress",
          "type": "string"
        }
      ],
      "name": "LogBuyData",
      "type": "event"
    },
    {
      "constant": false,
      "inputs": [
        {
          "name": "_name",
          "type": "string"
        },
        {
          "name": "_description",
          "type": "string"
        },
        {
          "name": "_ipfsAddress",
          "type": "string"
        }
      ],
      "name": "uploadData",
      "outputs": [],
      "payable": false,
      "stateMutability": "nonpayable",
      "type": "function"
    },
    {
      "constant": true,
      "inputs": [
        {
          "name": "currentUser",
          "type": "address"
        }
      ],
      "name": "getAllMyData",
      "outputs": [
        {
          "name": "",
          "type": "uint256[]"
        }
      ],
      "payable": false,
      "stateMutability": "view",
      "type": "function"
    },
    {
      "constant": false,
      "inputs": [
        {
          "name": "_id",
          "type": "uint256"
        },
        {
          "name": "_price",
          "type": "uint256"
        }
      ],
      "name": "sellData",
      "outputs": [],
      "payable": false,
      "stateMutability": "nonpayable",
      "type": "function"
    },
    {
      "constant": true,
      "inputs": [],
      "name": "getNumberOfData",
      "outputs": [
        {
          "name": "",
          "type": "uint256"
        }
      ],
      "payable": false,
      "stateMutability": "view",
      "type": "function"
    },
    {
      "constant": true,
      "inputs": [],
      "name": "getDataForSale",
      "outputs": [
        {
          "name": "",
          "type": "uint256[]"
        }
      ],
      "payable": false,
      "stateMutability": "view",
      "type": "function"
    },
    {
      "constant": false,
      "inputs": [
        {
          "name": "_id",
          "type": "uint256"
        }
      ],
      "name": "buyData",
      "outputs": [
        {
          "name": "",
          "type": "string"
        }
      ],
      "payable": true,
      "stateMutability": "payable",
      "type": "function"
    }
  ],
  "bytecode": "0x608060405234801561001057600080fd5b50611533806100206000396000f30060806040526004361061008e576000357c0100000000000000000000000000000000000000000000000000000000900463ffffffff1680635666f9ac14610093578063612d4ea2146100be57806371404489146100e957806375700b5e1461012d57806386089bb614610156578063af4a74cf14610193578063b916b5bf146101d7578063ca209dce14610200575b600080fd5b34801561009f57600080fd5b506100a8610230565b6040516100b59190611304565b60405180910390f35b3480156100ca57600080fd5b506100d361023a565b6040516100e091906112c0565b60405180910390f35b3480156100f557600080fd5b50610110600480360361010b9190810190611094565b61035e565b60405161012498979695949392919061131f565b60405180910390f35b34801561013957600080fd5b50610154600480360361014f91908101906110d0565b6105d7565b005b34801561016257600080fd5b5061017d6004803603610178919081019061106b565b610980565b60405161018a91906112c0565b60405180910390f35b34801561019f57600080fd5b506101ba60048036036101b59190810190611167565b610a90565b6040516101ce98979695949392919061131f565b60405180910390f35b3480156101e357600080fd5b506101fe60048036036101f99190810190611190565b610ced565b005b61021a60048036036102159190810190611167565b610d39565b60405161022791906112e2565b60405180910390f35b6000600154905090565b606080600080606060006001546040519080825280602002602001820160405280156102755781602001602082028038833980820191505090505b50945060009350600192505b600154831115156102d3576000808481526020019081526020016000206000015485858151811015156102b057fe5b906020019060200201818152505083806001019450508280600101935050610281565b836040519080825280602002602001820160405280156103025781602001602082028038833980820191505090505b509150600090505b8381101561035357848181518110151561032057fe5b90602001906020020151828281518110151561033857fe5b9060200190602002018181525050808060010191505061030a565b819550505050505090565b60026020528160005260406000208181548110151561037957fe5b9060005260206000209060080201600091509150508060000154908060010160009054906101000a900473ffffffffffffffffffffffffffffffffffffffff16908060020160009054906101000a900473ffffffffffffffffffffffffffffffffffffffff1690806003018054600181600116156101000203166002900480601f0160208091040260200160405190810160405280929190818152602001828054600181600116156101000203166002900480156104785780601f1061044d57610100808354040283529160200191610478565b820191906000526020600020905b81548152906001019060200180831161045b57829003601f168201915b505050505090806004018054600181600116156101000203166002900480601f0160208091040260200160405190810160405280929190818152602001828054600181600116156101000203166002900480156105165780601f106104eb57610100808354040283529160200191610516565b820191906000526020600020905b8154815290600101906020018083116104f957829003601f168201915b505050505090806005015490806006018054600181600116156101000203166002900480601f0160208091040260200160405190810160405280929190818152602001828054600181600116156101000203166002900480156105ba5780601f1061058f576101008083540402835291602001916105ba565b820191906000526020600020905b81548152906001019060200180831161059d57829003601f168201915b5050505050908060070160009054906101000a900460ff16905088565b6001600081548092919060010191905055506101006040519081016040528060015481526020013373ffffffffffffffffffffffffffffffffffffffff168152602001600073ffffffffffffffffffffffffffffffffffffffff168152602001848152602001838152602001600081526020018281526020016000151581525060008060015481526020019081526020016000206000820151816000015560208201518160010160006101000a81548173ffffffffffffffffffffffffffffffffffffffff021916908373ffffffffffffffffffffffffffffffffffffffff16021790555060408201518160020160006101000a81548173ffffffffffffffffffffffffffffffffffffffff021916908373ffffffffffffffffffffffffffffffffffffffff160217905550606082015181600301908051906020019061071f929190610f48565b50608082015181600401908051906020019061073c929190610f48565b5060a0820151816005015560c0820151816006019080519060200190610763929190610f48565b5060e08201518160070160006101000a81548160ff021916908315150217905550905050600260003373ffffffffffffffffffffffffffffffffffffffff1673ffffffffffffffffffffffffffffffffffffffff1681526020019081526020016000206101006040519081016040528060015481526020013373ffffffffffffffffffffffffffffffffffffffff168152602001600073ffffffffffffffffffffffffffffffffffffffff1681526020018581526020018481526020016000815260200183815260200160001515815250908060018154018082558091505090600182039060005260206000209060080201600090919290919091506000820151816000015560208201518160010160006101000a81548173ffffffffffffffffffffffffffffffffffffffff021916908373ffffffffffffffffffffffffffffffffffffffff16021790555060408201518160020160006101000a81548173ffffffffffffffffffffffffffffffffffffffff021916908373ffffffffffffffffffffffffffffffffffffffff1602179055506060820151816003019080519060200190610913929190610f48565b506080820151816004019080519060200190610930929190610f48565b5060a0820151816005015560c0820151816006019080519060200190610957929190610f48565b5060e08201518160070160006101000a81548160ff021916908315150217905550505050505050565b6060600080600190505b60015481111515610a37578373ffffffffffffffffffffffffffffffffffffffff1660008083815260200190815260200160002060010160009054906101000a900473ffffffffffffffffffffffffffffffffffffffff1673ffffffffffffffffffffffffffffffffffffffff161415610a2a57818190806001815401808255809150509060018203906000526020600020016000909192909190915055505b808060010191505061098a565b81805480602002602001604051908101604052809291908181526020018280548015610a8257602002820191906000526020600020905b815481526020019060010190808311610a6e575b505050505092505050919050565b60006020528060005260406000206000915090508060000154908060010160009054906101000a900473ffffffffffffffffffffffffffffffffffffffff16908060020160009054906101000a900473ffffffffffffffffffffffffffffffffffffffff1690806003018054600181600116156101000203166002900480601f016020809104026020016040519081016040528092919081815260200182805460018160011615610100020316600290048015610b8e5780601f10610b6357610100808354040283529160200191610b8e565b820191906000526020600020905b815481529060010190602001808311610b7157829003601f168201915b505050505090806004018054600181600116156101000203166002900480601f016020809104026020016040519081016040528092919081815260200182805460018160011615610100020316600290048015610c2c5780601f10610c0157610100808354040283529160200191610c2c565b820191906000526020600020905b815481529060010190602001808311610c0f57829003601f168201915b505050505090806005015490806006018054600181600116156101000203166002900480601f016020809104026020016040519081016040528092919081815260200182805460018160011615610100020316600290048015610cd05780601f10610ca557610100808354040283529160200191610cd0565b820191906000526020600020905b815481529060010190602001808311610cb357829003601f168201915b5050505050908060070160009054906101000a900460ff16905088565b8060008084815260200190815260200160002060050181905550600160008084815260200190815260200160002060070160006101000a81548160ff0219169083151502179055505050565b6060600080600154111515610d4d57600080fd5b600083118015610d5f57506001548311155b1515610d6a57600080fd5b600080848152602001908152602001600020905060008160020160009054906101000a900473ffffffffffffffffffffffffffffffffffffffff1673ffffffffffffffffffffffffffffffffffffffff16141515610dc757600080fd5b8060010160009054906101000a900473ffffffffffffffffffffffffffffffffffffffff1673ffffffffffffffffffffffffffffffffffffffff163373ffffffffffffffffffffffffffffffffffffffff1614151515610e2657600080fd5b806005015434141515610e3857600080fd5b8060010160009054906101000a900473ffffffffffffffffffffffffffffffffffffffff1673ffffffffffffffffffffffffffffffffffffffff166108fc349081150290604051600060405180830381858888f19350505050158015610ea2573d6000803e3d6000fd5b50806006018054600181600116156101000203166002900480601f016020809104026020016040519081016040528092919081815260200182805460018160011615610100020316600290048015610f3b5780601f10610f1057610100808354040283529160200191610f3b565b820191906000526020600020905b815481529060010190602001808311610f1e57829003601f168201915b5050505050915050919050565b828054600181600116156101000203166002900490600052602060002090601f016020900481019282601f10610f8957805160ff1916838001178555610fb7565b82800160010185558215610fb7579182015b82811115610fb6578251825591602001919060010190610f9b565b5b509050610fc49190610fc8565b5090565b610fea91905b80821115610fe6576000816000905550600101610fce565b5090565b90565b6000610ff9823561147c565b905092915050565b600082601f830112151561101457600080fd5b8135611027611022826113df565b6113b2565b9150808252602083016020830185838301111561104357600080fd5b61104e8382846114a6565b50505092915050565b6000611063823561149c565b905092915050565b60006020828403121561107d57600080fd5b600061108b84828501610fed565b91505092915050565b600080604083850312156110a757600080fd5b60006110b585828601610fed565b92505060206110c685828601611057565b9150509250929050565b6000806000606084860312156110e557600080fd5b600084013567ffffffffffffffff8111156110ff57600080fd5b61110b86828701611001565b935050602084013567ffffffffffffffff81111561112857600080fd5b61113486828701611001565b925050604084013567ffffffffffffffff81111561115157600080fd5b61115d86828701611001565b9150509250925092565b60006020828403121561117957600080fd5b600061118784828501611057565b91505092915050565b600080604083850312156111a357600080fd5b60006111b185828601611057565b92505060206111c285828601611057565b9150509250929050565b6111d581611446565b82525050565b60006111e682611418565b8084526020840193506111f88361140b565b60005b8281101561122a5761120e8683516112b1565b61121782611439565b91506020860195506001810190506111fb565b50849250505092915050565b61123f81611466565b82525050565b60006112508261142e565b8084526112648160208601602086016114b5565b61126d816114e8565b602085010191505092915050565b600061128682611423565b80845261129a8160208601602086016114b5565b6112a3816114e8565b602085010191505092915050565b6112ba81611472565b82525050565b600060208201905081810360008301526112da81846111db565b905092915050565b600060208201905081810360008301526112fc8184611245565b905092915050565b600060208201905061131960008301846112b1565b92915050565b600061010082019050611335600083018b6112b1565b611342602083018a6111cc565b61134f60408301896111cc565b8181036060830152611361818861127b565b90508181036080830152611375818761127b565b905061138460a08301866112b1565b81810360c0830152611396818561127b565b90506113a560e0830184611236565b9998505050505050505050565b6000604051905081810181811067ffffffffffffffff821117156113d557600080fd5b8060405250919050565b600067ffffffffffffffff8211156113f657600080fd5b601f19601f8301169050602081019050919050565b6000602082019050919050565b600081519050919050565b600081519050919050565b600081519050919050565b6000602082019050919050565b600073ffffffffffffffffffffffffffffffffffffffff82169050919050565b60008115159050919050565b6000819050919050565b600073ffffffffffffffffffffffffffffffffffffffff82169050919050565b6000819050919050565b82818337600083830152505050565b60005b838110156114d35780820151818401526020810190506114b8565b838111156114e2576000848401525b50505050565b6000601f19601f83011690509190505600a265627a7a72305820f6c3609b4ccbc8592057bc0a7a5c50a94b715994d3447b114442b78c51e0b2646c6578706572696d656e74616cf50037",
  "source": "pragma solidity ^0.4.19;\npragma experimental ABIEncoderV2;\n\ncontract ChainList {\n  // Healthcare Data struct\n  struct HealthData {\n    uint id;\n    address seller;\n    address buyer;\n    string name;\n    string description;\n    uint256 price;\n    string ipfsAddress;\n    bool isForSale;\n  }\n\n  // list of data for sale\n  mapping (uint => HealthData) public dataList;\n  uint dataCounter;\n\n  mapping(address => HealthData[]) public dataListByAccount;\n\n  // events\n  event LogSellData(\n    uint indexed _id,\n    address indexed _seller,\n    string _name,\n    uint256 _price,\n    string _ipfsAddress\n  );\n  event LogBuyData(\n    uint indexed _id,\n    address indexed _seller,\n    address indexed _buyer,\n    string _name,\n    uint256 _price,\n    string _ipfsAddress\n  ); \n\n  // store ipfsAddress with data name and description into ethereum\n  function uploadData(string _name, string _description, string _ipfsAddress) public {\n   dataCounter++;\n\n   dataList[dataCounter] = HealthData(\n     dataCounter,\n     msg.sender,\n     0x0,\n     _name,\n     _description,\n     0x0,\n     _ipfsAddress,\n     false\n   );\n\n   dataListByAccount[msg.sender].push(HealthData(\n     dataCounter,\n     msg.sender,\n     0x0,\n     _name,\n     _description,\n     0x0,\n     _ipfsAddress,\n     false));\n  }\n\n  // fetch all of current user's data for sale \n  // function getAllMyData(address currentUser) public  view returns (HealthData[]) {\n  //   return dataListByAccount[currentUser];\n  // }\n\n  function getAllMyData(address currentUser) public constant returns (uint[]) {\n    uint[] currentUserIdList;\n    for(uint i = 1; i <= dataCounter;  i++) {\n      if (dataList[i].seller == currentUser){\n        currentUserIdList.push(i);\n      }\n    }\n    return currentUserIdList;\n  }\n\n  // sell a data\n  // function sellData(uint _id, address currentUser, uint256 _price) public {\n  //   // add price of the data and change isForSale flag of the data to true\n  //   dataList[_id].price = _price;\n  //   dataList[_id].isForSale = true;\n\n  //   HealthData[] HealthDataListByCurrentUser = dataListByAccount[currentUser];\n\n  //   for (uint i = 0; i < HealthDataListByCurrentUser.length; i++) {\n  //     if (HealthDataListByCurrentUser[i].id == _id) {\n  //       HealthDataListByCurrentUser[i].isForSale = true;\n  //       HealthDataListByCurrentUser[i].price= _price;\n  //     }\n  //   }\n  // }\n\n  function sellData(uint _id, uint256 _price) public { \n    dataList[_id].price = _price; \n    dataList[_id].isForSale = true; \n  }\n\n  // fetch the number of data in the contract\n  function getNumberOfData() public view returns (uint) {\n    return dataCounter;\n  }\n\n  // fetch and return all data IDs for data still for sale\n  function getDataForSale() public view returns (uint[]) {\n    // prepare output array\n    uint[] memory dataIds = new uint[](dataCounter);\n\n    uint numberOfDataForSale = 0;\n    // iterate over data\n    for(uint i = 1; i <= dataCounter;  i++) {\n      // keep the ID if the data is still for sale\n      dataIds[numberOfDataForSale] = dataList[i].id;\n      numberOfDataForSale++;\n    }\n\n    // copy the data Ids array into a smaller forSale array\n    uint[] memory forSale = new uint[](numberOfDataForSale);\n    for(uint j = 0; j < numberOfDataForSale; j++) {\n      forSale[j] = dataIds[j];\n    }\n    return forSale;\n  }\n\n  // buy data\n  function buyData(uint _id) payable public returns(string) {\n    // we check whether there is an data for sale\n    require(dataCounter > 0);\n\n    // we check that the data exists\n    require(_id > 0 && _id <= dataCounter);\n\n    // we retrieve the data\n    HealthData storage data = dataList[_id];\n\n    // we check that the data has not been sold yet\n    require(data.buyer == 0X0);\n\n    // we don't allow the seller to buy his own data\n    require(msg.sender != data.seller);\n\n    // we check that the value sent corresponds to the price of the data\n    require(msg.value == data.price);\n\n    // the buyer can pay the seller\n    data.seller.transfer(msg.value);\n\n    return(data.ipfsAddress);\n    // trigger the event\n    //LogBuyData(_id, data.seller, data.buyer, data.name, data.price, data.ipfsAddress);\n  }\n}\n",
  "sourcePath": "/Users/Lee/amrita-mvp/contracts/ChainList.sol",
  "compiler": {
    "name": "solc",
    "version": "0.4.24+commit.e67f0147.Emscripten.clang"
  },
  "schemaVersion": "2.0.0",
  "updatedAt": "2018-05-29T00:57:59.745Z"
}