{
  "contractName": "ChainList",
  "abi": [
    {
      "constant": true,
      "inputs": [
        {
          "name": "",
          "type": "address"
        },
        {
          "name": "",
          "type": "uint256"
        }
      ],
      "name": "dataListByAccount",
      "outputs": [
        {
          "name": "id",
          "type": "uint256"
        },
        {
          "name": "seller",
          "type": "address"
        },
        {
          "name": "buyer",
          "type": "address"
        },
        {
          "name": "name",
          "type": "string"
        },
        {
          "name": "description",
          "type": "string"
        },
        {
          "name": "price",
          "type": "uint256"
        },
        {
          "name": "ipfsAddress",
          "type": "string"
        },
        {
          "name": "isForSale",
          "type": "bool"
        },
        {
          "name": "dataType",
          "type": "uint8"
        }
      ],
      "payable": false,
      "stateMutability": "view",
      "type": "function"
    },
    {
      "constant": true,
      "inputs": [
        {
          "name": "",
          "type": "uint256"
        }
      ],
      "name": "dataList",
      "outputs": [
        {
          "name": "id",
          "type": "uint256"
        },
        {
          "name": "seller",
          "type": "address"
        },
        {
          "name": "buyer",
          "type": "address"
        },
        {
          "name": "name",
          "type": "string"
        },
        {
          "name": "description",
          "type": "string"
        },
        {
          "name": "price",
          "type": "uint256"
        },
        {
          "name": "ipfsAddress",
          "type": "string"
        },
        {
          "name": "isForSale",
          "type": "bool"
        },
        {
          "name": "dataType",
          "type": "uint8"
        }
      ],
      "payable": false,
      "stateMutability": "view",
      "type": "function"
    },
    {
      "anonymous": false,
      "inputs": [
        {
          "indexed": true,
          "name": "_id",
          "type": "uint256"
        },
        {
          "indexed": true,
          "name": "_seller",
          "type": "address"
        },
        {
          "indexed": false,
          "name": "_name",
          "type": "string"
        },
        {
          "indexed": false,
          "name": "_price",
          "type": "uint256"
        },
        {
          "indexed": false,
          "name": "_ipfsAddress",
          "type": "string"
        }
      ],
      "name": "LogSellData",
      "type": "event"
    },
    {
      "anonymous": false,
      "inputs": [
        {
          "indexed": true,
          "name": "_id",
          "type": "uint256"
        },
        {
          "indexed": true,
          "name": "_seller",
          "type": "address"
        },
        {
          "indexed": true,
          "name": "_buyer",
          "type": "address"
        },
        {
          "indexed": false,
          "name": "_name",
          "type": "string"
        },
        {
          "indexed": false,
          "name": "_price",
          "type": "uint256"
        },
        {
          "indexed": false,
          "name": "_ipfsAddress",
          "type": "string"
        }
      ],
      "name": "LogBuyData",
      "type": "event"
    },
    {
      "constant": false,
      "inputs": [
        {
          "name": "_name",
          "type": "string"
        },
        {
          "name": "_description",
          "type": "string"
        },
        {
          "name": "_dataType",
          "type": "uint8"
        },
        {
          "name": "_ipfsAddress",
          "type": "string"
        }
      ],
      "name": "uploadData",
      "outputs": [],
      "payable": false,
      "stateMutability": "nonpayable",
      "type": "function"
    },
    {
      "constant": true,
      "inputs": [
        {
          "name": "currentUser",
          "type": "address"
        }
      ],
      "name": "getAllMyData",
      "outputs": [
        {
          "name": "",
          "type": "uint256[]"
        }
      ],
      "payable": false,
      "stateMutability": "view",
      "type": "function"
    },
    {
      "constant": false,
      "inputs": [
        {
          "name": "_id",
          "type": "uint256"
        },
        {
          "name": "_price",
          "type": "uint256"
        }
      ],
      "name": "sellData",
      "outputs": [],
      "payable": false,
      "stateMutability": "nonpayable",
      "type": "function"
    },
    {
      "constant": true,
      "inputs": [],
      "name": "getNumberOfData",
      "outputs": [
        {
          "name": "",
          "type": "uint256"
        }
      ],
      "payable": false,
      "stateMutability": "view",
      "type": "function"
    },
    {
      "constant": true,
      "inputs": [],
      "name": "getDataForSale",
      "outputs": [
        {
          "name": "",
          "type": "uint256[]"
        }
      ],
      "payable": false,
      "stateMutability": "view",
      "type": "function"
    },
    {
      "constant": false,
      "inputs": [
        {
          "name": "_id",
          "type": "uint256"
        }
      ],
      "name": "buyData",
      "outputs": [],
      "payable": true,
      "stateMutability": "payable",
      "type": "function"
    }
  ],
  "bytecode": "0x608060405234801561001057600080fd5b50611582806100206000396000f30060806040526004361061008e576000357c0100000000000000000000000000000000000000000000000000000000900463ffffffff1680635666f9ac14610093578063612d4ea2146100be57806371404489146100e957806386089bb61461012e578063af4a74cf1461016b578063b916b5bf146101b0578063ca209dce146101d9578063f255f057146101f5575b600080fd5b34801561009f57600080fd5b506100a861021e565b6040516100b5919061130e565b60405180910390f35b3480156100ca57600080fd5b506100d3610228565b6040516100e091906112ec565b60405180910390f35b3480156100f557600080fd5b50610110600480360361010b91908101906110d3565b61037c565b60405161012599989796959493929190611329565b60405180910390f35b34801561013a57600080fd5b50610155600480360361015091908101906110aa565b610608565b60405161016291906112ec565b60405180910390f35b34801561017757600080fd5b50610192600480360361018d91908101906111ba565b610718565b6040516101a799989796959493929190611329565b60405180910390f35b3480156101bc57600080fd5b506101d760048036036101d291908101906111e3565b610988565b005b6101f360048036036101ee91908101906111ba565b610a09565b005b34801561020157600080fd5b5061021c6004803603610217919081019061110f565b610b53565b005b6000600154905090565b606080600080606060006001546040519080825280602002602001820160405280156102635781602001602082028038833980820191505090505b50945060009350600192505b600154831115156102f1576001151560008085815260200190815260200160002060070160009054906101000a900460ff16151514156102e4576000808481526020019081526020016000206000015485858151811015156102cd57fe5b906020019060200201818152505083806001019450505b828060010193505061026f565b836040519080825280602002602001820160405280156103205781602001602082028038833980820191505090505b509150600090505b8381101561037157848181518110151561033e57fe5b90602001906020020151828281518110151561035657fe5b90602001906020020181815250508080600101915050610328565b819550505050505090565b60026020528160005260406000208181548110151561039757fe5b9060005260206000209060080201600091509150508060000154908060010160009054906101000a900473ffffffffffffffffffffffffffffffffffffffff16908060020160009054906101000a900473ffffffffffffffffffffffffffffffffffffffff1690806003018054600181600116156101000203166002900480601f0160208091040260200160405190810160405280929190818152602001828054600181600116156101000203166002900480156104965780601f1061046b57610100808354040283529160200191610496565b820191906000526020600020905b81548152906001019060200180831161047957829003601f168201915b505050505090806004018054600181600116156101000203166002900480601f0160208091040260200160405190810160405280929190818152602001828054600181600116156101000203166002900480156105345780601f1061050957610100808354040283529160200191610534565b820191906000526020600020905b81548152906001019060200180831161051757829003601f168201915b505050505090806005015490806006018054600181600116156101000203166002900480601f0160208091040260200160405190810160405280929190818152602001828054600181600116156101000203166002900480156105d85780601f106105ad576101008083540402835291602001916105d8565b820191906000526020600020905b8154815290600101906020018083116105bb57829003601f168201915b5050505050908060070160009054906101000a900460ff16908060070160019054906101000a900460ff16905089565b60606000600190505b600154811115156106bf578273ffffffffffffffffffffffffffffffffffffffff1660008083815260200190815260200160002060010160009054906101000a900473ffffffffffffffffffffffffffffffffffffffff1673ffffffffffffffffffffffffffffffffffffffff1614156106b25760038190806001815401808255809150509060018203906000526020600020016000909192909190915055505b8080600101915050610611565b600380548060200260200160405190810160405280929190818152602001828054801561070b57602002820191906000526020600020905b8154815260200190600101908083116106f7575b5050505050915050919050565b60006020528060005260406000206000915090508060000154908060010160009054906101000a900473ffffffffffffffffffffffffffffffffffffffff16908060020160009054906101000a900473ffffffffffffffffffffffffffffffffffffffff1690806003018054600181600116156101000203166002900480601f0160208091040260200160405190810160405280929190818152602001828054600181600116156101000203166002900480156108165780601f106107eb57610100808354040283529160200191610816565b820191906000526020600020905b8154815290600101906020018083116107f957829003601f168201915b505050505090806004018054600181600116156101000203166002900480601f0160208091040260200160405190810160405280929190818152602001828054600181600116156101000203166002900480156108b45780601f10610889576101008083540402835291602001916108b4565b820191906000526020600020905b81548152906001019060200180831161089757829003601f168201915b505050505090806005015490806006018054600181600116156101000203166002900480601f0160208091040260200160405190810160405280929190818152602001828054600181600116156101000203166002900480156109585780601f1061092d57610100808354040283529160200191610958565b820191906000526020600020905b81548152906001019060200180831161093b57829003601f168201915b5050505050908060070160009054906101000a900460ff16908060070160019054906101000a900460ff16905089565b6000151560008084815260200190815260200160002060070160009054906101000a900460ff1615151415156109bd57600080fd5b8060008084815260200190815260200160002060050181905550600160008084815260200190815260200160002060070160006101000a81548160ff0219169083151502179055505050565b600080600154111515610a1b57600080fd5b600082118015610a2d57506001548211155b1515610a3857600080fd5b600080838152602001908152602001600020905060018160070160006101000a81548160ff02191690831515021790551515610a7357600080fd5b8060010160009054906101000a900473ffffffffffffffffffffffffffffffffffffffff1673ffffffffffffffffffffffffffffffffffffffff163373ffffffffffffffffffffffffffffffffffffffff1614151515610ad257600080fd5b806005015434141515610ae457600080fd5b8060010160009054906101000a900473ffffffffffffffffffffffffffffffffffffffff1673ffffffffffffffffffffffffffffffffffffffff166108fc349081150290604051600060405180830381858888f19350505050158015610b4e573d6000803e3d6000fd5b505050565b6001600081548092919060010191905055506101206040519081016040528060015481526020013373ffffffffffffffffffffffffffffffffffffffff168152602001600073ffffffffffffffffffffffffffffffffffffffff16815260200185815260200184815260200160008152602001828152602001600015158152602001836001811115610be157fe5b81525060008060015481526020019081526020016000206000820151816000015560208201518160010160006101000a81548173ffffffffffffffffffffffffffffffffffffffff021916908373ffffffffffffffffffffffffffffffffffffffff16021790555060408201518160020160006101000a81548173ffffffffffffffffffffffffffffffffffffffff021916908373ffffffffffffffffffffffffffffffffffffffff1602179055506060820151816003019080519060200190610cac929190610f73565b506080820151816004019080519060200190610cc9929190610f73565b5060a0820151816005015560c0820151816006019080519060200190610cf0929190610f73565b5060e08201518160070160006101000a81548160ff0219169083151502179055506101008201518160070160016101000a81548160ff02191690836001811115610d3657fe5b0217905550905050600260003373ffffffffffffffffffffffffffffffffffffffff1673ffffffffffffffffffffffffffffffffffffffff1681526020019081526020016000206101206040519081016040528060015481526020013373ffffffffffffffffffffffffffffffffffffffff168152602001600073ffffffffffffffffffffffffffffffffffffffff16815260200186815260200185815260200160008152602001838152602001600015158152602001846001811115610df957fe5b815250908060018154018082558091505090600182039060005260206000209060080201600090919290919091506000820151816000015560208201518160010160006101000a81548173ffffffffffffffffffffffffffffffffffffffff021916908373ffffffffffffffffffffffffffffffffffffffff16021790555060408201518160020160006101000a81548173ffffffffffffffffffffffffffffffffffffffff021916908373ffffffffffffffffffffffffffffffffffffffff1602179055506060820151816003019080519060200190610edb929190610f73565b506080820151816004019080519060200190610ef8929190610f73565b5060a0820151816005015560c0820151816006019080519060200190610f1f929190610f73565b5060e08201518160070160006101000a81548160ff0219169083151502179055506101008201518160070160016101000a81548160ff02191690836001811115610f6557fe5b021790555050505050505050565b828054600181600116156101000203166002900490600052602060002090601f016020900481019282601f10610fb457805160ff1916838001178555610fe2565b82800160010185558215610fe2579182015b82811115610fe1578251825591602001919060010190610fc6565b5b509050610fef9190610ff3565b5090565b61101591905b80821115611011576000816000905550600101610ff9565b5090565b90565b600061102482356114a0565b905092915050565b600061103882356114c0565b905092915050565b600082601f830112151561105357600080fd5b8135611066611061826113f8565b6113cb565b9150808252602083016020830185838301111561108257600080fd5b61108d8382846114f5565b50505092915050565b60006110a282356114d9565b905092915050565b6000602082840312156110bc57600080fd5b60006110ca84828501611018565b91505092915050565b600080604083850312156110e657600080fd5b60006110f485828601611018565b925050602061110585828601611096565b9150509250929050565b6000806000806080858703121561112557600080fd5b600085013567ffffffffffffffff81111561113f57600080fd5b61114b87828801611040565b945050602085013567ffffffffffffffff81111561116857600080fd5b61117487828801611040565b93505060406111858782880161102c565b925050606085013567ffffffffffffffff8111156111a257600080fd5b6111ae87828801611040565b91505092959194509250565b6000602082840312156111cc57600080fd5b60006111da84828501611096565b91505092915050565b600080604083850312156111f657600080fd5b600061120485828601611096565b925050602061121585828601611096565b9150509250929050565b61122881611454565b82525050565b600061123982611431565b80845260208401935061124b83611424565b60005b8281101561127d576112618683516112dd565b61126a82611447565b915060208601955060018101905061124e565b50849250505092915050565b61129281611474565b82525050565b6112a1816114e3565b82525050565b60006112b28261143c565b8084526112c6816020860160208601611504565b6112cf81611537565b602085010191505092915050565b6112e681611496565b82525050565b60006020820190508181036000830152611306818461122e565b905092915050565b600060208201905061132360008301846112dd565b92915050565b60006101208201905061133f600083018c6112dd565b61134c602083018b61121f565b611359604083018a61121f565b818103606083015261136b81896112a7565b9050818103608083015261137f81886112a7565b905061138e60a08301876112dd565b81810360c08301526113a081866112a7565b90506113af60e0830185611289565b6113bd610100830184611298565b9a9950505050505050505050565b6000604051905081810181811067ffffffffffffffff821117156113ee57600080fd5b8060405250919050565b600067ffffffffffffffff82111561140f57600080fd5b601f19601f8301169050602081019050919050565b6000602082019050919050565b600081519050919050565b600081519050919050565b6000602082019050919050565b600073ffffffffffffffffffffffffffffffffffffffff82169050919050565b60008115159050919050565b600060028210151561148e57fe5b819050919050565b6000819050919050565b600073ffffffffffffffffffffffffffffffffffffffff82169050919050565b60006002821015156114d157600080fd5b819050919050565b6000819050919050565b60006114ee82611480565b9050919050565b82818337600083830152505050565b60005b83811015611522578082015181840152602081019050611507565b83811115611531576000848401525b50505050565b6000601f19601f83011690509190505600a265627a7a7230582027c2b03dbb2d93cef9800bf4da5ec2b1d35716b0309e7aa13b19f85c3e9e5ab56c6578706572696d656e74616cf50037",
  "source": "pragma solidity ^0.4.19;\npragma experimental ABIEncoderV2;\n\ncontract ChainList {\n  enum DataType {IMAGE, GENOMIC}\n  // Healthcare Data struct\n  struct HealthData {\n    uint id;\n    address seller;\n    address buyer;\n    string name;\n    string description;\n    uint256 price;\n    string ipfsAddress;\n    bool isForSale;\n    DataType dataType;\n  }\n\n  // list of data for sale\n  mapping (uint => HealthData) public dataList;\n  uint dataCounter;\n\n  mapping(address => HealthData[]) public dataListByAccount;\n\n  // events\n  event LogSellData(\n    uint indexed _id,\n    address indexed _seller,\n    string _name,\n    uint256 _price,\n    string _ipfsAddress\n  );\n  event LogBuyData(\n    uint indexed _id,\n    address indexed _seller,\n    address indexed _buyer,\n    string _name,\n    uint256 _price,\n    string _ipfsAddress\n  ); \n\n  // store ipfsAddress with data name and description into ethereum\n  function uploadData(string _name, string _description, DataType _dataType, string _ipfsAddress) public {\n   dataCounter++;\n\n   dataList[dataCounter] = HealthData(\n     dataCounter,\n     msg.sender,\n     0x0,\n     _name,\n     _description,\n     0x0,\n     _ipfsAddress,\n     false,\n     _dataType\n   );\n\n   dataListByAccount[msg.sender].push(HealthData(\n     dataCounter,\n     msg.sender,\n     0x0,\n     _name,\n     _description,\n     0x0,\n     _ipfsAddress,\n     false,\n     _dataType\n   ));\n  }\n\n  uint[] currentUserIdList;\n\n\n  function getAllMyData(address currentUser) public constant returns (uint[]) {    \n    for(uint i = 1; i <= dataCounter;  i++) {\n      if (dataList[i].seller == currentUser){\n        currentUserIdList.push(i);\n      }\n    }\n    return currentUserIdList;\n  }\n\n  function sellData(uint _id, uint256 _price) public { \n    require(dataList[_id].isForSale == false);\n    dataList[_id].price = _price; \n    dataList[_id].isForSale = true; \n  }\n\n  // fetch the number of data in the contract\n  function getNumberOfData() public view returns (uint) {\n    return dataCounter;\n  }\n\n  // fetch and return all data IDs for data with isForSale being true\n  function getDataForSale() public view returns (uint[]) {\n    // prepare output array\n    uint[] memory dataIds = new uint[](dataCounter);\n\n    uint numberOfDataForSale = 0;\n    // iterate over data\n    for(uint i = 1; i <= dataCounter;  i++) {\n      if(dataList[i].isForSale == true) {\n        dataIds[numberOfDataForSale] = dataList[i].id;\n        numberOfDataForSale++;\n      }\n    }\n\n    // copy the data Ids array into a smaller forSale array\n    uint[] memory forSale = new uint[](numberOfDataForSale);\n    for(uint j = 0; j < numberOfDataForSale; j++) {\n      forSale[j] = dataIds[j];\n    }\n    return forSale;\n  }\n\n  function buyData(uint _id) payable public {\n    // we check whether there is data for sale\n    require(dataCounter > 0);\n\n    // we check that the article exists\n    require(_id > 0 && _id <= dataCounter);\n\n    // we retrieve the article\n    HealthData storage data = dataList[_id];\n\n    require(data.isForSale = true);\n\n    require(msg.sender != data.seller);\n\n    // we check that the value sent corresponds to the price of the data\n    require(msg.value == data.price);\n\n    // the buyer can pay the seller\n    data.seller.transfer(msg.value);\n  }\n}",
  "sourcePath": "/Users/Lee/amrita-mvp/contracts/ChainList.sol",
  "compiler": {
    "name": "solc",
    "version": "0.4.24+commit.e67f0147.Emscripten.clang"
  },
  "schemaVersion": "2.0.0",
  "updatedAt": "2018-06-02T21:23:26.828Z"
}