{
  "contractName": "ChainList",
  "abi": [
    {
      "constant": true,
      "inputs": [
        {
          "name": "",
          "type": "address"
        },
        {
          "name": "",
          "type": "uint256"
        }
      ],
      "name": "dataListByAccount",
      "outputs": [
        {
          "name": "id",
          "type": "uint256"
        },
        {
          "name": "seller",
          "type": "address"
        },
        {
          "name": "buyer",
          "type": "address"
        },
        {
          "name": "name",
          "type": "string"
        },
        {
          "name": "description",
          "type": "string"
        },
        {
          "name": "price",
          "type": "uint256"
        },
        {
          "name": "ipfsAddress",
          "type": "string"
        },
        {
          "name": "isForSale",
          "type": "bool"
        },
        {
          "name": "dataType",
          "type": "uint8"
        },
        {
          "name": "key",
          "type": "string"
        }
      ],
      "payable": false,
      "stateMutability": "view",
      "type": "function"
    },
    {
      "constant": true,
      "inputs": [
        {
          "name": "",
          "type": "uint256"
        }
      ],
      "name": "dataList",
      "outputs": [
        {
          "name": "id",
          "type": "uint256"
        },
        {
          "name": "seller",
          "type": "address"
        },
        {
          "name": "buyer",
          "type": "address"
        },
        {
          "name": "name",
          "type": "string"
        },
        {
          "name": "description",
          "type": "string"
        },
        {
          "name": "price",
          "type": "uint256"
        },
        {
          "name": "ipfsAddress",
          "type": "string"
        },
        {
          "name": "isForSale",
          "type": "bool"
        },
        {
          "name": "dataType",
          "type": "uint8"
        },
        {
          "name": "key",
          "type": "string"
        }
      ],
      "payable": false,
      "stateMutability": "view",
      "type": "function"
    },
    {
      "anonymous": false,
      "inputs": [
        {
          "indexed": true,
          "name": "_id",
          "type": "uint256"
        },
        {
          "indexed": true,
          "name": "_seller",
          "type": "address"
        },
        {
          "indexed": false,
          "name": "_name",
          "type": "string"
        },
        {
          "indexed": false,
          "name": "_price",
          "type": "uint256"
        },
        {
          "indexed": false,
          "name": "_ipfsAddress",
          "type": "string"
        }
      ],
      "name": "LogSellData",
      "type": "event"
    },
    {
      "anonymous": false,
      "inputs": [
        {
          "indexed": true,
          "name": "_id",
          "type": "uint256"
        },
        {
          "indexed": true,
          "name": "_seller",
          "type": "address"
        },
        {
          "indexed": true,
          "name": "_buyer",
          "type": "address"
        },
        {
          "indexed": false,
          "name": "_name",
          "type": "string"
        },
        {
          "indexed": false,
          "name": "_price",
          "type": "uint256"
        },
        {
          "indexed": false,
          "name": "_ipfsAddress",
          "type": "string"
        }
      ],
      "name": "LogBuyData",
      "type": "event"
    },
    {
      "constant": false,
      "inputs": [
        {
          "name": "_name",
          "type": "string"
        },
        {
          "name": "_description",
          "type": "string"
        },
        {
          "name": "_dataType",
          "type": "uint8"
        },
        {
          "name": "_ipfsAddress",
          "type": "string"
        },
        {
          "name": "_key",
          "type": "string"
        }
      ],
      "name": "uploadData",
      "outputs": [],
      "payable": false,
      "stateMutability": "nonpayable",
      "type": "function"
    },
    {
      "constant": true,
      "inputs": [
        {
          "name": "currentUser",
          "type": "address"
        }
      ],
      "name": "getAllMyData",
      "outputs": [
        {
          "name": "",
          "type": "uint256[]"
        }
      ],
      "payable": false,
      "stateMutability": "view",
      "type": "function"
    },
    {
      "constant": false,
      "inputs": [
        {
          "name": "_id",
          "type": "uint256"
        },
        {
          "name": "_price",
          "type": "uint256"
        }
      ],
      "name": "sellData",
      "outputs": [],
      "payable": false,
      "stateMutability": "nonpayable",
      "type": "function"
    },
    {
      "constant": true,
      "inputs": [],
      "name": "getNumberOfData",
      "outputs": [
        {
          "name": "",
          "type": "uint256"
        }
      ],
      "payable": false,
      "stateMutability": "view",
      "type": "function"
    },
    {
      "constant": true,
      "inputs": [],
      "name": "getDataForSale",
      "outputs": [
        {
          "name": "",
          "type": "uint256[]"
        }
      ],
      "payable": false,
      "stateMutability": "view",
      "type": "function"
    },
    {
      "constant": false,
      "inputs": [
        {
          "name": "_id",
          "type": "uint256"
        }
      ],
      "name": "buyData",
      "outputs": [],
      "payable": true,
      "stateMutability": "payable",
      "type": "function"
    }
  ],
  "bytecode": "0x608060405234801561001057600080fd5b5061174b806100206000396000f30060806040526004361061008e576000357c0100000000000000000000000000000000000000000000000000000000900463ffffffff1680635666f9ac14610093578063612d4ea2146100be5780636dfe6825146100e9578063714044891461011257806386089bb614610158578063af4a74cf14610195578063b916b5bf146101db578063ca209dce14610204575b600080fd5b34801561009f57600080fd5b506100a8610220565b6040516100b591906114c1565b60405180910390f35b3480156100ca57600080fd5b506100d361022a565b6040516100e0919061149f565b60405180910390f35b3480156100f557600080fd5b50610110600480360361010b9190810190611296565b61037e565b005b34801561011e57600080fd5b506101396004803603610134919081019061125a565b6107e7565b60405161014f9a999897969594939291906114dc565b60405180910390f35b34801561016457600080fd5b5061017f600480360361017a9190810190611231565b610b11565b60405161018c919061149f565b60405180910390f35b3480156101a157600080fd5b506101bc60048036036101b7919081019061136d565b610c21565b6040516101d29a999897969594939291906114dc565b60405180910390f35b3480156101e757600080fd5b5061020260048036036101fd9190810190611396565b610f2f565b005b61021e6004803603610219919081019061136d565b610fb0565b005b6000600154905090565b606080600080606060006001546040519080825280602002602001820160405280156102655781602001602082028038833980820191505090505b50945060009350600192505b600154831115156102f3576001151560008085815260200190815260200160002060070160009054906101000a900460ff16151514156102e6576000808481526020019081526020016000206000015485858151811015156102cf57fe5b906020019060200201818152505083806001019450505b8280600101935050610271565b836040519080825280602002602001820160405280156103225781602001602082028038833980820191505090505b509150600090505b8381101561037357848181518110151561034057fe5b90602001906020020151828281518110151561035857fe5b9060200190602002018181525050808060010191505061032a565b819550505050505090565b6001600081548092919060010191905055506101406040519081016040528060015481526020013373ffffffffffffffffffffffffffffffffffffffff168152602001600073ffffffffffffffffffffffffffffffffffffffff1681526020018681526020018581526020016000815260200183815260200160001515815260200184600181111561040c57fe5b81526020018281525060008060015481526020019081526020016000206000820151816000015560208201518160010160006101000a81548173ffffffffffffffffffffffffffffffffffffffff021916908373ffffffffffffffffffffffffffffffffffffffff16021790555060408201518160020160006101000a81548173ffffffffffffffffffffffffffffffffffffffff021916908373ffffffffffffffffffffffffffffffffffffffff16021790555060608201518160030190805190602001906104dd9291906110fa565b5060808201518160040190805190602001906104fa9291906110fa565b5060a0820151816005015560c08201518160060190805190602001906105219291906110fa565b5060e08201518160070160006101000a81548160ff0219169083151502179055506101008201518160070160016101000a81548160ff0219169083600181111561056757fe5b02179055506101208201518160080190805190602001906105899291906110fa565b50905050600260003373ffffffffffffffffffffffffffffffffffffffff1673ffffffffffffffffffffffffffffffffffffffff1681526020019081526020016000206101406040519081016040528060015481526020013373ffffffffffffffffffffffffffffffffffffffff168152602001600073ffffffffffffffffffffffffffffffffffffffff1681526020018781526020018681526020016000815260200184815260200160001515815260200185600181111561064857fe5b815260200183815250908060018154018082558091505090600182039060005260206000209060090201600090919290919091506000820151816000015560208201518160010160006101000a81548173ffffffffffffffffffffffffffffffffffffffff021916908373ffffffffffffffffffffffffffffffffffffffff16021790555060408201518160020160006101000a81548173ffffffffffffffffffffffffffffffffffffffff021916908373ffffffffffffffffffffffffffffffffffffffff16021790555060608201518160030190805190602001906107309291906110fa565b50608082015181600401908051906020019061074d9291906110fa565b5060a0820151816005015560c08201518160060190805190602001906107749291906110fa565b5060e08201518160070160006101000a81548160ff0219169083151502179055506101008201518160070160016101000a81548160ff021916908360018111156107ba57fe5b02179055506101208201518160080190805190602001906107dc9291906110fa565b505050505050505050565b60026020528160005260406000208181548110151561080257fe5b9060005260206000209060090201600091509150508060000154908060010160009054906101000a900473ffffffffffffffffffffffffffffffffffffffff16908060020160009054906101000a900473ffffffffffffffffffffffffffffffffffffffff1690806003018054600181600116156101000203166002900480601f0160208091040260200160405190810160405280929190818152602001828054600181600116156101000203166002900480156109015780601f106108d657610100808354040283529160200191610901565b820191906000526020600020905b8154815290600101906020018083116108e457829003601f168201915b505050505090806004018054600181600116156101000203166002900480601f01602080910402602001604051908101604052809291908181526020018280546001816001161561010002031660029004801561099f5780601f106109745761010080835404028352916020019161099f565b820191906000526020600020905b81548152906001019060200180831161098257829003601f168201915b505050505090806005015490806006018054600181600116156101000203166002900480601f016020809104026020016040519081016040528092919081815260200182805460018160011615610100020316600290048015610a435780601f10610a1857610100808354040283529160200191610a43565b820191906000526020600020905b815481529060010190602001808311610a2657829003601f168201915b5050505050908060070160009054906101000a900460ff16908060070160019054906101000a900460ff1690806008018054600181600116156101000203166002900480601f016020809104026020016040519081016040528092919081815260200182805460018160011615610100020316600290048015610b075780601f10610adc57610100808354040283529160200191610b07565b820191906000526020600020905b815481529060010190602001808311610aea57829003601f168201915b505050505090508a565b60606000600190505b60015481111515610bc8578273ffffffffffffffffffffffffffffffffffffffff1660008083815260200190815260200160002060010160009054906101000a900473ffffffffffffffffffffffffffffffffffffffff1673ffffffffffffffffffffffffffffffffffffffff161415610bbb5760038190806001815401808255809150509060018203906000526020600020016000909192909190915055505b8080600101915050610b1a565b6003805480602002602001604051908101604052809291908181526020018280548015610c1457602002820191906000526020600020905b815481526020019060010190808311610c00575b5050505050915050919050565b60006020528060005260406000206000915090508060000154908060010160009054906101000a900473ffffffffffffffffffffffffffffffffffffffff16908060020160009054906101000a900473ffffffffffffffffffffffffffffffffffffffff1690806003018054600181600116156101000203166002900480601f016020809104026020016040519081016040528092919081815260200182805460018160011615610100020316600290048015610d1f5780601f10610cf457610100808354040283529160200191610d1f565b820191906000526020600020905b815481529060010190602001808311610d0257829003601f168201915b505050505090806004018054600181600116156101000203166002900480601f016020809104026020016040519081016040528092919081815260200182805460018160011615610100020316600290048015610dbd5780601f10610d9257610100808354040283529160200191610dbd565b820191906000526020600020905b815481529060010190602001808311610da057829003601f168201915b505050505090806005015490806006018054600181600116156101000203166002900480601f016020809104026020016040519081016040528092919081815260200182805460018160011615610100020316600290048015610e615780601f10610e3657610100808354040283529160200191610e61565b820191906000526020600020905b815481529060010190602001808311610e4457829003601f168201915b5050505050908060070160009054906101000a900460ff16908060070160019054906101000a900460ff1690806008018054600181600116156101000203166002900480601f016020809104026020016040519081016040528092919081815260200182805460018160011615610100020316600290048015610f255780601f10610efa57610100808354040283529160200191610f25565b820191906000526020600020905b815481529060010190602001808311610f0857829003601f168201915b505050505090508a565b6000151560008084815260200190815260200160002060070160009054906101000a900460ff161515141515610f6457600080fd5b8060008084815260200190815260200160002060050181905550600160008084815260200190815260200160002060070160006101000a81548160ff0219169083151502179055505050565b600080600154111515610fc257600080fd5b600082118015610fd457506001548211155b1515610fdf57600080fd5b600080838152602001908152602001600020905060018160070160006101000a81548160ff0219169083151502179055151561101a57600080fd5b8060010160009054906101000a900473ffffffffffffffffffffffffffffffffffffffff1673ffffffffffffffffffffffffffffffffffffffff163373ffffffffffffffffffffffffffffffffffffffff161415151561107957600080fd5b80600501543414151561108b57600080fd5b8060010160009054906101000a900473ffffffffffffffffffffffffffffffffffffffff1673ffffffffffffffffffffffffffffffffffffffff166108fc349081150290604051600060405180830381858888f193505050501580156110f5573d6000803e3d6000fd5b505050565b828054600181600116156101000203166002900490600052602060002090601f016020900481019282601f1061113b57805160ff1916838001178555611169565b82800160010185558215611169579182015b8281111561116857825182559160200191906001019061114d565b5b509050611176919061117a565b5090565b61119c91905b80821115611198576000816000905550600101611180565b5090565b90565b60006111ab8235611669565b905092915050565b60006111bf8235611689565b905092915050565b600082601f83011215156111da57600080fd5b81356111ed6111e8826115c1565b611594565b9150808252602083016020830185838301111561120957600080fd5b6112148382846116be565b50505092915050565b600061122982356116a2565b905092915050565b60006020828403121561124357600080fd5b60006112518482850161119f565b91505092915050565b6000806040838503121561126d57600080fd5b600061127b8582860161119f565b925050602061128c8582860161121d565b9150509250929050565b600080600080600060a086880312156112ae57600080fd5b600086013567ffffffffffffffff8111156112c857600080fd5b6112d4888289016111c7565b955050602086013567ffffffffffffffff8111156112f157600080fd5b6112fd888289016111c7565b945050604061130e888289016111b3565b935050606086013567ffffffffffffffff81111561132b57600080fd5b611337888289016111c7565b925050608086013567ffffffffffffffff81111561135457600080fd5b611360888289016111c7565b9150509295509295909350565b60006020828403121561137f57600080fd5b600061138d8482850161121d565b91505092915050565b600080604083850312156113a957600080fd5b60006113b78582860161121d565b92505060206113c88582860161121d565b9150509250929050565b6113db8161161d565b82525050565b60006113ec826115fa565b8084526020840193506113fe836115ed565b60005b8281101561143057611414868351611490565b61141d82611610565b9150602086019550600181019050611401565b50849250505092915050565b6114458161163d565b82525050565b611454816116ac565b82525050565b600061146582611605565b8084526114798160208601602086016116cd565b61148281611700565b602085010191505092915050565b6114998161165f565b82525050565b600060208201905081810360008301526114b981846113e1565b905092915050565b60006020820190506114d66000830184611490565b92915050565b6000610140820190506114f2600083018d611490565b6114ff602083018c6113d2565b61150c604083018b6113d2565b818103606083015261151e818a61145a565b90508181036080830152611532818961145a565b905061154160a0830188611490565b81810360c0830152611553818761145a565b905061156260e083018661143c565b61157061010083018561144b565b818103610120830152611583818461145a565b90509b9a5050505050505050505050565b6000604051905081810181811067ffffffffffffffff821117156115b757600080fd5b8060405250919050565b600067ffffffffffffffff8211156115d857600080fd5b601f19601f8301169050602081019050919050565b6000602082019050919050565b600081519050919050565b600081519050919050565b6000602082019050919050565b600073ffffffffffffffffffffffffffffffffffffffff82169050919050565b60008115159050919050565b600060028210151561165757fe5b819050919050565b6000819050919050565b600073ffffffffffffffffffffffffffffffffffffffff82169050919050565b600060028210151561169a57600080fd5b819050919050565b6000819050919050565b60006116b782611649565b9050919050565b82818337600083830152505050565b60005b838110156116eb5780820151818401526020810190506116d0565b838111156116fa576000848401525b50505050565b6000601f19601f83011690509190505600a265627a7a7230582061c0958d78587da8720eb581d531f913747f5949e6f68f92449fa7185b6185d66c6578706572696d656e74616cf50037",
  "source": "pragma solidity ^0.4.19;\npragma experimental ABIEncoderV2;\n\ncontract ChainList {\n  enum DataType {IMAGE, GENOMIC}\n  // Healthcare Data struct\n  struct HealthData {\n    uint id;\n    address seller;\n    address buyer;\n    string name;\n    string description;\n    uint256 price;\n    string ipfsAddress;\n    bool isForSale;\n    DataType dataType;\n    string key;\n  }\n\n  // list of data for sale\n  mapping (uint => HealthData) public dataList;\n  uint dataCounter;\n\n  mapping(address => HealthData[]) public dataListByAccount;\n\n  // events\n  event LogSellData(\n    uint indexed _id,\n    address indexed _seller,\n    string _name,\n    uint256 _price,\n    string _ipfsAddress\n  );\n  event LogBuyData(\n    uint indexed _id,\n    address indexed _seller,\n    address indexed _buyer,\n    string _name,\n    uint256 _price,\n    string _ipfsAddress\n  ); \n\n  // store ipfsAddress with data name and description into ethereum\n  function uploadData(string _name, string _description, DataType _dataType, string _ipfsAddress, string _key) public {\n   dataCounter++;\n\n   dataList[dataCounter] = HealthData(\n     dataCounter,\n     msg.sender,\n     0x0,\n     _name,\n     _description,\n     0x0,\n     _ipfsAddress,\n     false,\n     _dataType,\n     _key\n   );\n\n   dataListByAccount[msg.sender].push(HealthData(\n     dataCounter,\n     msg.sender,\n     0x0,\n     _name,\n     _description,\n     0x0,\n     _ipfsAddress,\n     false,\n     _dataType,\n     _key\n   ));\n  }\n\n  uint[] currentUserIdList;\n\n\n  function getAllMyData(address currentUser) public constant returns (uint[]) {    \n    for(uint i = 1; i <= dataCounter;  i++) {\n      if (dataList[i].seller == currentUser){\n        currentUserIdList.push(i);\n      }\n    }\n    return currentUserIdList;\n  }\n\n  function sellData(uint _id, uint256 _price) public { \n    require(dataList[_id].isForSale == false);\n    dataList[_id].price = _price; \n    dataList[_id].isForSale = true; \n  }\n\n  // fetch the number of data in the contract\n  function getNumberOfData() public view returns (uint) {\n    return dataCounter;\n  }\n\n  // fetch and return all data IDs for data with isForSale being true\n  function getDataForSale() public view returns (uint[]) {\n    // prepare output array\n    uint[] memory dataIds = new uint[](dataCounter);\n\n    uint numberOfDataForSale = 0;\n    // iterate over data\n    for(uint i = 1; i <= dataCounter;  i++) {\n      if(dataList[i].isForSale == true) {\n        dataIds[numberOfDataForSale] = dataList[i].id;\n        numberOfDataForSale++;\n      }\n    }\n\n    // copy the data Ids array into a smaller forSale array\n    uint[] memory forSale = new uint[](numberOfDataForSale);\n    for(uint j = 0; j < numberOfDataForSale; j++) {\n      forSale[j] = dataIds[j];\n    }\n    return forSale;\n  }\n\n  function buyData(uint _id) payable public {\n    // we check whether there is data for sale\n    require(dataCounter > 0);\n\n    // we check that the article exists\n    require(_id > 0 && _id <= dataCounter);\n\n    // we retrieve the article\n    HealthData storage data = dataList[_id];\n\n    require(data.isForSale = true);\n\n    require(msg.sender != data.seller);\n\n    // we check that the value sent corresponds to the price of the data\n    require(msg.value == data.price);\n\n    // the buyer can pay the seller\n    data.seller.transfer(msg.value);\n  }\n}",
  "sourcePath": "/Users/Lee/amrita-mvp/contracts/ChainList.sol",
  "compiler": {
    "name": "solc",
    "version": "0.4.24+commit.e67f0147.Emscripten.clang"
  },
  "schemaVersion": "2.0.0",
  "updatedAt": "2018-06-13T05:14:33.078Z"
}