{
  "contractName": "ChainList",
  "abi": [
    {
      "constant": true,
      "inputs": [
        {
          "name": "",
          "type": "address"
        },
        {
          "name": "",
          "type": "uint256"
        }
      ],
      "name": "dataListByAccount",
      "outputs": [
        {
          "name": "id",
          "type": "uint256"
        },
        {
          "name": "seller",
          "type": "address"
        },
        {
          "name": "buyer",
          "type": "address"
        },
        {
          "name": "name",
          "type": "string"
        },
        {
          "name": "description",
          "type": "string"
        },
        {
          "name": "price",
          "type": "uint256"
        },
        {
          "name": "ipfsAddress",
          "type": "string"
        },
        {
          "name": "isForSale",
          "type": "bool"
        },
        {
          "name": "dataType",
          "type": "uint8"
        },
        {
          "name": "key",
          "type": "string"
        },
        {
          "name": "extension",
          "type": "string"
        },
        {
          "name": "category",
          "type": "string"
        }
      ],
      "payable": false,
      "stateMutability": "view",
      "type": "function"
    },
    {
      "constant": true,
      "inputs": [
        {
          "name": "",
          "type": "uint256"
        }
      ],
      "name": "dataList",
      "outputs": [
        {
          "name": "id",
          "type": "uint256"
        },
        {
          "name": "seller",
          "type": "address"
        },
        {
          "name": "buyer",
          "type": "address"
        },
        {
          "name": "name",
          "type": "string"
        },
        {
          "name": "description",
          "type": "string"
        },
        {
          "name": "price",
          "type": "uint256"
        },
        {
          "name": "ipfsAddress",
          "type": "string"
        },
        {
          "name": "isForSale",
          "type": "bool"
        },
        {
          "name": "dataType",
          "type": "uint8"
        },
        {
          "name": "key",
          "type": "string"
        },
        {
          "name": "extension",
          "type": "string"
        },
        {
          "name": "category",
          "type": "string"
        }
      ],
      "payable": false,
      "stateMutability": "view",
      "type": "function"
    },
    {
      "anonymous": false,
      "inputs": [
        {
          "indexed": true,
          "name": "_id",
          "type": "uint256"
        },
        {
          "indexed": true,
          "name": "_seller",
          "type": "address"
        },
        {
          "indexed": false,
          "name": "_name",
          "type": "string"
        },
        {
          "indexed": false,
          "name": "_price",
          "type": "uint256"
        },
        {
          "indexed": false,
          "name": "_ipfsAddress",
          "type": "string"
        }
      ],
      "name": "LogSellData",
      "type": "event"
    },
    {
      "anonymous": false,
      "inputs": [
        {
          "indexed": true,
          "name": "_id",
          "type": "uint256"
        },
        {
          "indexed": true,
          "name": "_seller",
          "type": "address"
        },
        {
          "indexed": true,
          "name": "_buyer",
          "type": "address"
        },
        {
          "indexed": false,
          "name": "_name",
          "type": "string"
        },
        {
          "indexed": false,
          "name": "_price",
          "type": "uint256"
        },
        {
          "indexed": false,
          "name": "_ipfsAddress",
          "type": "string"
        }
      ],
      "name": "LogBuyData",
      "type": "event"
    },
    {
      "constant": false,
      "inputs": [
        {
          "name": "_name",
          "type": "string"
        },
        {
          "name": "_description",
          "type": "string"
        },
        {
          "name": "_dataType",
          "type": "uint8"
        },
        {
          "name": "_category",
          "type": "string"
        },
        {
          "name": "_ipfsAddress",
          "type": "string"
        },
        {
          "name": "_key",
          "type": "string"
        },
        {
          "name": "_extension",
          "type": "string"
        }
      ],
      "name": "uploadData",
      "outputs": [],
      "payable": false,
      "stateMutability": "nonpayable",
      "type": "function"
    },
    {
      "constant": true,
      "inputs": [
        {
          "name": "currentUser",
          "type": "address"
        }
      ],
      "name": "getAllMyData",
      "outputs": [
        {
          "name": "",
          "type": "uint256[]"
        }
      ],
      "payable": false,
      "stateMutability": "view",
      "type": "function"
    },
    {
      "constant": false,
      "inputs": [
        {
          "name": "_id",
          "type": "uint256"
        },
        {
          "name": "_price",
          "type": "uint256"
        }
      ],
      "name": "sellData",
      "outputs": [],
      "payable": false,
      "stateMutability": "nonpayable",
      "type": "function"
    },
    {
      "constant": true,
      "inputs": [],
      "name": "getNumberOfData",
      "outputs": [
        {
          "name": "",
          "type": "uint256"
        }
      ],
      "payable": false,
      "stateMutability": "view",
      "type": "function"
    },
    {
      "constant": true,
      "inputs": [],
      "name": "getDataForSale",
      "outputs": [
        {
          "name": "",
          "type": "uint256[]"
        }
      ],
      "payable": false,
      "stateMutability": "view",
      "type": "function"
    },
    {
      "constant": false,
      "inputs": [
        {
          "name": "_id",
          "type": "uint256"
        }
      ],
      "name": "buyData",
      "outputs": [],
      "payable": true,
      "stateMutability": "payable",
      "type": "function"
    }
  ],
  "bytecode": "0x608060405234801561001057600080fd5b50611adc806100206000396000f30060806040526004361061008e576000357c0100000000000000000000000000000000000000000000000000000000900463ffffffff168063323885d8146100935780635666f9ac146100bc578063612d4ea2146100e7578063714044891461011257806386089bb61461015a578063af4a74cf14610197578063b916b5bf146101df578063ca209dce14610208575b600080fd5b34801561009f57600080fd5b506100ba60048036036100b591908101906115a4565b610224565b005b3480156100c857600080fd5b506100d161071f565b6040516100de9190611826565b60405180910390f35b3480156100f357600080fd5b506100fc610729565b6040516101099190611804565b60405180910390f35b34801561011e57600080fd5b5061013960048036036101349190810190611568565b61087d565b6040516101519c9b9a99989796959493929190611841565b60405180910390f35b34801561016657600080fd5b50610181600480360361017c919081019061153f565b610ce3565b60405161018e9190611804565b60405180910390f35b3480156101a357600080fd5b506101be60048036036101b991908101906116d2565b610df3565b6040516101d69c9b9a99989796959493929190611841565b60405180910390f35b3480156101eb57600080fd5b50610206600480360361020191908101906116fb565b61123d565b005b610222600480360361021d91908101906116d2565b6112be565b005b6001600081548092919060010191905055506101806040519081016040528060015481526020013373ffffffffffffffffffffffffffffffffffffffff168152602001600073ffffffffffffffffffffffffffffffffffffffff168152602001888152602001878152602001600081526020018481526020016000151581526020018660038111156102b257fe5b81526020018381526020018281526020018581525060008060015481526020019081526020016000206000820151816000015560208201518160010160006101000a81548173ffffffffffffffffffffffffffffffffffffffff021916908373ffffffffffffffffffffffffffffffffffffffff16021790555060408201518160020160006101000a81548173ffffffffffffffffffffffffffffffffffffffff021916908373ffffffffffffffffffffffffffffffffffffffff160217905550606082015181600301908051906020019061038f929190611408565b5060808201518160040190805190602001906103ac929190611408565b5060a0820151816005015560c08201518160060190805190602001906103d3929190611408565b5060e08201518160070160006101000a81548160ff0219169083151502179055506101008201518160070160016101000a81548160ff0219169083600381111561041957fe5b021790555061012082015181600801908051906020019061043b929190611408565b50610140820151816009019080519060200190610459929190611408565b5061016082015181600a019080519060200190610477929190611408565b50905050600260003373ffffffffffffffffffffffffffffffffffffffff1673ffffffffffffffffffffffffffffffffffffffff1681526020019081526020016000206101806040519081016040528060015481526020013373ffffffffffffffffffffffffffffffffffffffff168152602001600073ffffffffffffffffffffffffffffffffffffffff1681526020018981526020018881526020016000815260200185815260200160001515815260200187600381111561053657fe5b8152602001848152602001838152602001868152509080600181540180825580915050906001820390600052602060002090600b0201600090919290919091506000820151816000015560208201518160010160006101000a81548173ffffffffffffffffffffffffffffffffffffffff021916908373ffffffffffffffffffffffffffffffffffffffff16021790555060408201518160020160006101000a81548173ffffffffffffffffffffffffffffffffffffffff021916908373ffffffffffffffffffffffffffffffffffffffff160217905550606082015181600301908051906020019061062a929190611408565b506080820151816004019080519060200190610647929190611408565b5060a0820151816005015560c082015181600601908051906020019061066e929190611408565b5060e08201518160070160006101000a81548160ff0219169083151502179055506101008201518160070160016101000a81548160ff021916908360038111156106b457fe5b02179055506101208201518160080190805190602001906106d6929190611408565b506101408201518160090190805190602001906106f4929190611408565b5061016082015181600a019080519060200190610712929190611408565b5050505050505050505050565b6000600154905090565b606080600080606060006001546040519080825280602002602001820160405280156107645781602001602082028038833980820191505090505b50945060009350600192505b600154831115156107f2576001151560008085815260200190815260200160002060070160009054906101000a900460ff16151514156107e5576000808481526020019081526020016000206000015485858151811015156107ce57fe5b906020019060200201818152505083806001019450505b8280600101935050610770565b836040519080825280602002602001820160405280156108215781602001602082028038833980820191505090505b509150600090505b8381101561087257848181518110151561083f57fe5b90602001906020020151828281518110151561085757fe5b90602001906020020181815250508080600101915050610829565b819550505050505090565b60026020528160005260406000208181548110151561089857fe5b90600052602060002090600b0201600091509150508060000154908060010160009054906101000a900473ffffffffffffffffffffffffffffffffffffffff16908060020160009054906101000a900473ffffffffffffffffffffffffffffffffffffffff1690806003018054600181600116156101000203166002900480601f0160208091040260200160405190810160405280929190818152602001828054600181600116156101000203166002900480156109975780601f1061096c57610100808354040283529160200191610997565b820191906000526020600020905b81548152906001019060200180831161097a57829003601f168201915b505050505090806004018054600181600116156101000203166002900480601f016020809104026020016040519081016040528092919081815260200182805460018160011615610100020316600290048015610a355780601f10610a0a57610100808354040283529160200191610a35565b820191906000526020600020905b815481529060010190602001808311610a1857829003601f168201915b505050505090806005015490806006018054600181600116156101000203166002900480601f016020809104026020016040519081016040528092919081815260200182805460018160011615610100020316600290048015610ad95780601f10610aae57610100808354040283529160200191610ad9565b820191906000526020600020905b815481529060010190602001808311610abc57829003601f168201915b5050505050908060070160009054906101000a900460ff16908060070160019054906101000a900460ff1690806008018054600181600116156101000203166002900480601f016020809104026020016040519081016040528092919081815260200182805460018160011615610100020316600290048015610b9d5780601f10610b7257610100808354040283529160200191610b9d565b820191906000526020600020905b815481529060010190602001808311610b8057829003601f168201915b505050505090806009018054600181600116156101000203166002900480601f016020809104026020016040519081016040528092919081815260200182805460018160011615610100020316600290048015610c3b5780601f10610c1057610100808354040283529160200191610c3b565b820191906000526020600020905b815481529060010190602001808311610c1e57829003601f168201915b50505050509080600a018054600181600116156101000203166002900480601f016020809104026020016040519081016040528092919081815260200182805460018160011615610100020316600290048015610cd95780601f10610cae57610100808354040283529160200191610cd9565b820191906000526020600020905b815481529060010190602001808311610cbc57829003601f168201915b505050505090508c565b60606000600190505b60015481111515610d9a578273ffffffffffffffffffffffffffffffffffffffff1660008083815260200190815260200160002060010160009054906101000a900473ffffffffffffffffffffffffffffffffffffffff1673ffffffffffffffffffffffffffffffffffffffff161415610d8d5760038190806001815401808255809150509060018203906000526020600020016000909192909190915055505b8080600101915050610cec565b6003805480602002602001604051908101604052809291908181526020018280548015610de657602002820191906000526020600020905b815481526020019060010190808311610dd2575b5050505050915050919050565b60006020528060005260406000206000915090508060000154908060010160009054906101000a900473ffffffffffffffffffffffffffffffffffffffff16908060020160009054906101000a900473ffffffffffffffffffffffffffffffffffffffff1690806003018054600181600116156101000203166002900480601f016020809104026020016040519081016040528092919081815260200182805460018160011615610100020316600290048015610ef15780601f10610ec657610100808354040283529160200191610ef1565b820191906000526020600020905b815481529060010190602001808311610ed457829003601f168201915b505050505090806004018054600181600116156101000203166002900480601f016020809104026020016040519081016040528092919081815260200182805460018160011615610100020316600290048015610f8f5780601f10610f6457610100808354040283529160200191610f8f565b820191906000526020600020905b815481529060010190602001808311610f7257829003601f168201915b505050505090806005015490806006018054600181600116156101000203166002900480601f0160208091040260200160405190810160405280929190818152602001828054600181600116156101000203166002900480156110335780601f1061100857610100808354040283529160200191611033565b820191906000526020600020905b81548152906001019060200180831161101657829003601f168201915b5050505050908060070160009054906101000a900460ff16908060070160019054906101000a900460ff1690806008018054600181600116156101000203166002900480601f0160208091040260200160405190810160405280929190818152602001828054600181600116156101000203166002900480156110f75780601f106110cc576101008083540402835291602001916110f7565b820191906000526020600020905b8154815290600101906020018083116110da57829003601f168201915b505050505090806009018054600181600116156101000203166002900480601f0160208091040260200160405190810160405280929190818152602001828054600181600116156101000203166002900480156111955780601f1061116a57610100808354040283529160200191611195565b820191906000526020600020905b81548152906001019060200180831161117857829003601f168201915b50505050509080600a018054600181600116156101000203166002900480601f0160208091040260200160405190810160405280929190818152602001828054600181600116156101000203166002900480156112335780601f1061120857610100808354040283529160200191611233565b820191906000526020600020905b81548152906001019060200180831161121657829003601f168201915b505050505090508c565b6000151560008084815260200190815260200160002060070160009054906101000a900460ff16151514151561127257600080fd5b8060008084815260200190815260200160002060050181905550600160008084815260200190815260200160002060070160006101000a81548160ff0219169083151502179055505050565b6000806001541115156112d057600080fd5b6000821180156112e257506001548211155b15156112ed57600080fd5b600080838152602001908152602001600020905060018160070160006101000a81548160ff0219169083151502179055151561132857600080fd5b8060010160009054906101000a900473ffffffffffffffffffffffffffffffffffffffff1673ffffffffffffffffffffffffffffffffffffffff163373ffffffffffffffffffffffffffffffffffffffff161415151561138757600080fd5b80600501543414151561139957600080fd5b8060010160009054906101000a900473ffffffffffffffffffffffffffffffffffffffff1673ffffffffffffffffffffffffffffffffffffffff166108fc349081150290604051600060405180830381858888f19350505050158015611403573d6000803e3d6000fd5b505050565b828054600181600116156101000203166002900490600052602060002090601f016020900481019282601f1061144957805160ff1916838001178555611477565b82800160010185558215611477579182015b8281111561147657825182559160200191906001019061145b565b5b5090506114849190611488565b5090565b6114aa91905b808211156114a657600081600090555060010161148e565b5090565b90565b60006114b982356119fa565b905092915050565b60006114cd8235611a1a565b905092915050565b600082601f83011215156114e857600080fd5b81356114fb6114f682611952565b611925565b9150808252602083016020830185838301111561151757600080fd5b611522838284611a4f565b50505092915050565b60006115378235611a33565b905092915050565b60006020828403121561155157600080fd5b600061155f848285016114ad565b91505092915050565b6000806040838503121561157b57600080fd5b6000611589858286016114ad565b925050602061159a8582860161152b565b9150509250929050565b600080600080600080600060e0888a0312156115bf57600080fd5b600088013567ffffffffffffffff8111156115d957600080fd5b6115e58a828b016114d5565b975050602088013567ffffffffffffffff81111561160257600080fd5b61160e8a828b016114d5565b965050604061161f8a828b016114c1565b955050606088013567ffffffffffffffff81111561163c57600080fd5b6116488a828b016114d5565b945050608088013567ffffffffffffffff81111561166557600080fd5b6116718a828b016114d5565b93505060a088013567ffffffffffffffff81111561168e57600080fd5b61169a8a828b016114d5565b92505060c088013567ffffffffffffffff8111156116b757600080fd5b6116c38a828b016114d5565b91505092959891949750929550565b6000602082840312156116e457600080fd5b60006116f28482850161152b565b91505092915050565b6000806040838503121561170e57600080fd5b600061171c8582860161152b565b925050602061172d8582860161152b565b9150509250929050565b611740816119ae565b82525050565b60006117518261198b565b8084526020840193506117638361197e565b60005b82811015611795576117798683516117f5565b611782826119a1565b9150602086019550600181019050611766565b50849250505092915050565b6117aa816119ce565b82525050565b6117b981611a3d565b82525050565b60006117ca82611996565b8084526117de816020860160208601611a5e565b6117e781611a91565b602085010191505092915050565b6117fe816119f0565b82525050565b6000602082019050818103600083015261181e8184611746565b905092915050565b600060208201905061183b60008301846117f5565b92915050565b600061018082019050611857600083018f6117f5565b611864602083018e611737565b611871604083018d611737565b8181036060830152611883818c6117bf565b90508181036080830152611897818b6117bf565b90506118a660a083018a6117f5565b81810360c08301526118b881896117bf565b90506118c760e08301886117a1565b6118d56101008301876117b0565b8181036101208301526118e881866117bf565b90508181036101408301526118fd81856117bf565b905081810361016083015261191281846117bf565b90509d9c50505050505050505050505050565b6000604051905081810181811067ffffffffffffffff8211171561194857600080fd5b8060405250919050565b600067ffffffffffffffff82111561196957600080fd5b601f19601f8301169050602081019050919050565b6000602082019050919050565b600081519050919050565b600081519050919050565b6000602082019050919050565b600073ffffffffffffffffffffffffffffffffffffffff82169050919050565b60008115159050919050565b60006004821015156119e857fe5b819050919050565b6000819050919050565b600073ffffffffffffffffffffffffffffffffffffffff82169050919050565b6000600482101515611a2b57600080fd5b819050919050565b6000819050919050565b6000611a48826119da565b9050919050565b82818337600083830152505050565b60005b83811015611a7c578082015181840152602081019050611a61565b83811115611a8b576000848401525b50505050565b6000601f19601f83011690509190505600a265627a7a72305820aa02bd404efb3220ec365fc16f56af810f38c000436b2a856c9fa96822b13f396c6578706572696d656e74616cf50037",
  "source": "pragma solidity ^0.4.19;\npragma experimental ABIEncoderV2;\n\ncontract ChainList {\n  enum DataType {EMR, NUMERICAL_MEASUREMENT, MEDICAL_IMAGING_DATA, GENETIC_DATA}\n  // Healthcare Data struct\n  struct HealthData {\n    uint id;\n    address seller;\n    address buyer;\n    string name;\n    string description;\n    uint256 price;\n    string ipfsAddress;\n    bool isForSale;\n    DataType dataType;\n    string key;\n    string extension;\n    string category;\n  }\n\n  // list of data for sale\n  mapping (uint => HealthData) public dataList;\n  uint dataCounter;\n\n  mapping(address => HealthData[]) public dataListByAccount;\n\n  // events\n  event LogSellData(\n    uint indexed _id,\n    address indexed _seller,\n    string _name,\n    uint256 _price,\n    string _ipfsAddress\n  );\n  event LogBuyData(\n    uint indexed _id,\n    address indexed _seller,\n    address indexed _buyer,\n    string _name,\n    uint256 _price,\n    string _ipfsAddress\n  ); \n\n  // store ipfsAddress with data name and description into ethereum\n  function uploadData(string _name, string _description, DataType _dataType, string _category, string _ipfsAddress, string _key, string _extension) public {\n   dataCounter++;\n\n   dataList[dataCounter] = HealthData(\n     dataCounter,\n     msg.sender,\n     0x0,\n     _name,\n     _description,\n     0x0,\n     _ipfsAddress,\n     false,\n     _dataType,\n     _key,\n     _extension,\n     _category\n   );\n\n   dataListByAccount[msg.sender].push(HealthData(\n     dataCounter,\n     msg.sender,\n     0x0,\n     _name,\n     _description,\n     0x0,\n     _ipfsAddress,\n     false,\n     _dataType,\n     _key,\n     _extension,\n     _category\n   ));\n  }\n\n  uint[] currentUserIdList;\n\n\n  function getAllMyData(address currentUser) public constant returns (uint[]) {    \n    for(uint i = 1; i <= dataCounter;  i++) {\n      if (dataList[i].seller == currentUser){\n        currentUserIdList.push(i);\n      }\n    }\n    return currentUserIdList;\n  }\n\n  function sellData(uint _id, uint256 _price) public { \n    require(dataList[_id].isForSale == false);\n    dataList[_id].price = _price; \n    dataList[_id].isForSale = true; \n  }\n\n  // fetch the number of data in the contract\n  function getNumberOfData() public view returns (uint) {\n    return dataCounter;\n  }\n\n  // fetch and return all data IDs for data with isForSale being true\n  function getDataForSale() public view returns (uint[]) {\n    // prepare output array\n    uint[] memory dataIds = new uint[](dataCounter);\n\n    uint numberOfDataForSale = 0;\n    // iterate over data\n    for(uint i = 1; i <= dataCounter;  i++) {\n      if(dataList[i].isForSale == true) {\n        dataIds[numberOfDataForSale] = dataList[i].id;\n        numberOfDataForSale++;\n      }\n    }\n\n    // copy the data Ids array into a smaller forSale array\n    uint[] memory forSale = new uint[](numberOfDataForSale);\n    for(uint j = 0; j < numberOfDataForSale; j++) {\n      forSale[j] = dataIds[j];\n    }\n    return forSale;\n  }\n\n  function buyData(uint _id) payable public {\n    // we check whether there is data for sale\n    require(dataCounter > 0);\n\n    // we check that the data exists\n    require(_id > 0 && _id <= dataCounter);\n\n    // we retrieve the data\n    HealthData storage data = dataList[_id];\n\n    require(data.isForSale = true);\n\n    require(msg.sender != data.seller);\n\n    // we check that the value sent corresponds to the price of the data\n    require(msg.value == data.price);\n\n    // the buyer can pay the seller\n    data.seller.transfer(msg.value);\n  }\n}",
  "sourcePath": "/Users/Lee/amrita-mvp/contracts/ChainList.sol",
  "compiler": {
    "name": "solc",
    "version": "0.4.24+commit.e67f0147.Emscripten.clang"
  },
  "schemaVersion": "2.0.0",
  "updatedAt": "2018-06-18T01:05:35.813Z"
}