{
  "contractName": "ChainList",
  "abi": [
    {
      "constant": true,
      "inputs": [
        {
          "name": "",
          "type": "address"
        },
        {
          "name": "",
          "type": "uint256"
        }
      ],
      "name": "dataListByAccount",
      "outputs": [
        {
          "name": "id",
          "type": "uint256"
        },
        {
          "name": "seller",
          "type": "address"
        },
        {
          "name": "buyer",
          "type": "address"
        },
        {
          "name": "name",
          "type": "string"
        },
        {
          "name": "description",
          "type": "string"
        },
        {
          "name": "price",
          "type": "uint256"
        },
        {
          "name": "ipfsAddress",
          "type": "string"
        },
        {
          "name": "isForSale",
          "type": "bool"
        }
      ],
      "payable": false,
      "stateMutability": "view",
      "type": "function"
    },
    {
      "constant": true,
      "inputs": [
        {
          "name": "",
          "type": "uint256"
        }
      ],
      "name": "dataList",
      "outputs": [
        {
          "name": "id",
          "type": "uint256"
        },
        {
          "name": "seller",
          "type": "address"
        },
        {
          "name": "buyer",
          "type": "address"
        },
        {
          "name": "name",
          "type": "string"
        },
        {
          "name": "description",
          "type": "string"
        },
        {
          "name": "price",
          "type": "uint256"
        },
        {
          "name": "ipfsAddress",
          "type": "string"
        },
        {
          "name": "isForSale",
          "type": "bool"
        }
      ],
      "payable": false,
      "stateMutability": "view",
      "type": "function"
    },
    {
      "anonymous": false,
      "inputs": [
        {
          "indexed": true,
          "name": "_id",
          "type": "uint256"
        },
        {
          "indexed": true,
          "name": "_seller",
          "type": "address"
        },
        {
          "indexed": false,
          "name": "_name",
          "type": "string"
        },
        {
          "indexed": false,
          "name": "_price",
          "type": "uint256"
        },
        {
          "indexed": false,
          "name": "_ipfsAddress",
          "type": "string"
        }
      ],
      "name": "LogSellData",
      "type": "event"
    },
    {
      "anonymous": false,
      "inputs": [
        {
          "indexed": true,
          "name": "_id",
          "type": "uint256"
        },
        {
          "indexed": true,
          "name": "_seller",
          "type": "address"
        },
        {
          "indexed": true,
          "name": "_buyer",
          "type": "address"
        },
        {
          "indexed": false,
          "name": "_name",
          "type": "string"
        },
        {
          "indexed": false,
          "name": "_price",
          "type": "uint256"
        },
        {
          "indexed": false,
          "name": "_ipfsAddress",
          "type": "string"
        }
      ],
      "name": "LogBuyData",
      "type": "event"
    },
    {
      "constant": false,
      "inputs": [
        {
          "name": "_name",
          "type": "string"
        },
        {
          "name": "_description",
          "type": "string"
        },
        {
          "name": "_ipfsAddress",
          "type": "string"
        }
      ],
      "name": "uploadData",
      "outputs": [],
      "payable": false,
      "stateMutability": "nonpayable",
      "type": "function"
    },
    {
      "constant": true,
      "inputs": [
        {
          "name": "currentUser",
          "type": "address"
        }
      ],
      "name": "getAllMyData",
      "outputs": [
        {
          "name": "",
          "type": "uint256[]"
        }
      ],
      "payable": false,
      "stateMutability": "view",
      "type": "function"
    },
    {
      "constant": false,
      "inputs": [
        {
          "name": "_id",
          "type": "uint256"
        },
        {
          "name": "_price",
          "type": "uint256"
        }
      ],
      "name": "sellData",
      "outputs": [],
      "payable": false,
      "stateMutability": "nonpayable",
      "type": "function"
    },
    {
      "constant": true,
      "inputs": [],
      "name": "getNumberOfData",
      "outputs": [
        {
          "name": "",
          "type": "uint256"
        }
      ],
      "payable": false,
      "stateMutability": "view",
      "type": "function"
    },
    {
      "constant": true,
      "inputs": [],
      "name": "getDataForSale",
      "outputs": [
        {
          "name": "",
          "type": "uint256[]"
        }
      ],
      "payable": false,
      "stateMutability": "view",
      "type": "function"
    },
    {
      "constant": false,
      "inputs": [
        {
          "name": "_id",
          "type": "uint256"
        }
      ],
      "name": "buyData",
      "outputs": [
        {
          "name": "",
          "type": "string"
        }
      ],
      "payable": true,
      "stateMutability": "payable",
      "type": "function"
    }
  ],
  "bytecode": "0x608060405234801561001057600080fd5b50611576806100206000396000f30060806040526004361061008e576000357c0100000000000000000000000000000000000000000000000000000000900463ffffffff1680635666f9ac14610093578063612d4ea2146100be57806371404489146100e957806375700b5e1461012d57806386089bb614610156578063af4a74cf14610193578063b916b5bf146101d7578063ca209dce14610200575b600080fd5b34801561009f57600080fd5b506100a8610230565b6040516100b59190611347565b60405180910390f35b3480156100ca57600080fd5b506100d361023a565b6040516100e09190611303565b60405180910390f35b3480156100f557600080fd5b50610110600480360361010b91908101906110d7565b61038e565b604051610124989796959493929190611362565b60405180910390f35b34801561013957600080fd5b50610154600480360361014f9190810190611113565b610607565b005b34801561016257600080fd5b5061017d600480360361017891908101906110ae565b6109b0565b60405161018a9190611303565b60405180910390f35b34801561019f57600080fd5b506101ba60048036036101b591908101906111aa565b610ac0565b6040516101ce989796959493929190611362565b60405180910390f35b3480156101e357600080fd5b506101fe60048036036101f991908101906111d3565b610d1d565b005b61021a600480360361021591908101906111aa565b610d9e565b6040516102279190611325565b60405180910390f35b6000600154905090565b606080600080606060006001546040519080825280602002602001820160405280156102755781602001602082028038833980820191505090505b50945060009350600192505b60015483111515610303576001151560008085815260200190815260200160002060070160009054906101000a900460ff16151514156102f6576000808481526020019081526020016000206000015485858151811015156102df57fe5b906020019060200201818152505083806001019450505b8280600101935050610281565b836040519080825280602002602001820160405280156103325781602001602082028038833980820191505090505b509150600090505b8381101561038357848181518110151561035057fe5b90602001906020020151828281518110151561036857fe5b9060200190602002018181525050808060010191505061033a565b819550505050505090565b6002602052816000526040600020818154811015156103a957fe5b9060005260206000209060080201600091509150508060000154908060010160009054906101000a900473ffffffffffffffffffffffffffffffffffffffff16908060020160009054906101000a900473ffffffffffffffffffffffffffffffffffffffff1690806003018054600181600116156101000203166002900480601f0160208091040260200160405190810160405280929190818152602001828054600181600116156101000203166002900480156104a85780601f1061047d576101008083540402835291602001916104a8565b820191906000526020600020905b81548152906001019060200180831161048b57829003601f168201915b505050505090806004018054600181600116156101000203166002900480601f0160208091040260200160405190810160405280929190818152602001828054600181600116156101000203166002900480156105465780601f1061051b57610100808354040283529160200191610546565b820191906000526020600020905b81548152906001019060200180831161052957829003601f168201915b505050505090806005015490806006018054600181600116156101000203166002900480601f0160208091040260200160405190810160405280929190818152602001828054600181600116156101000203166002900480156105ea5780601f106105bf576101008083540402835291602001916105ea565b820191906000526020600020905b8154815290600101906020018083116105cd57829003601f168201915b5050505050908060070160009054906101000a900460ff16905088565b6001600081548092919060010191905055506101006040519081016040528060015481526020013373ffffffffffffffffffffffffffffffffffffffff168152602001600073ffffffffffffffffffffffffffffffffffffffff168152602001848152602001838152602001600081526020018281526020016000151581525060008060015481526020019081526020016000206000820151816000015560208201518160010160006101000a81548173ffffffffffffffffffffffffffffffffffffffff021916908373ffffffffffffffffffffffffffffffffffffffff16021790555060408201518160020160006101000a81548173ffffffffffffffffffffffffffffffffffffffff021916908373ffffffffffffffffffffffffffffffffffffffff160217905550606082015181600301908051906020019061074f929190610f8b565b50608082015181600401908051906020019061076c929190610f8b565b5060a0820151816005015560c0820151816006019080519060200190610793929190610f8b565b5060e08201518160070160006101000a81548160ff021916908315150217905550905050600260003373ffffffffffffffffffffffffffffffffffffffff1673ffffffffffffffffffffffffffffffffffffffff1681526020019081526020016000206101006040519081016040528060015481526020013373ffffffffffffffffffffffffffffffffffffffff168152602001600073ffffffffffffffffffffffffffffffffffffffff1681526020018581526020018481526020016000815260200183815260200160001515815250908060018154018082558091505090600182039060005260206000209060080201600090919290919091506000820151816000015560208201518160010160006101000a81548173ffffffffffffffffffffffffffffffffffffffff021916908373ffffffffffffffffffffffffffffffffffffffff16021790555060408201518160020160006101000a81548173ffffffffffffffffffffffffffffffffffffffff021916908373ffffffffffffffffffffffffffffffffffffffff1602179055506060820151816003019080519060200190610943929190610f8b565b506080820151816004019080519060200190610960929190610f8b565b5060a0820151816005015560c0820151816006019080519060200190610987929190610f8b565b5060e08201518160070160006101000a81548160ff021916908315150217905550505050505050565b60606000600190505b60015481111515610a67578273ffffffffffffffffffffffffffffffffffffffff1660008083815260200190815260200160002060010160009054906101000a900473ffffffffffffffffffffffffffffffffffffffff1673ffffffffffffffffffffffffffffffffffffffff161415610a5a5760038190806001815401808255809150509060018203906000526020600020016000909192909190915055505b80806001019150506109b9565b6003805480602002602001604051908101604052809291908181526020018280548015610ab357602002820191906000526020600020905b815481526020019060010190808311610a9f575b5050505050915050919050565b60006020528060005260406000206000915090508060000154908060010160009054906101000a900473ffffffffffffffffffffffffffffffffffffffff16908060020160009054906101000a900473ffffffffffffffffffffffffffffffffffffffff1690806003018054600181600116156101000203166002900480601f016020809104026020016040519081016040528092919081815260200182805460018160011615610100020316600290048015610bbe5780601f10610b9357610100808354040283529160200191610bbe565b820191906000526020600020905b815481529060010190602001808311610ba157829003601f168201915b505050505090806004018054600181600116156101000203166002900480601f016020809104026020016040519081016040528092919081815260200182805460018160011615610100020316600290048015610c5c5780601f10610c3157610100808354040283529160200191610c5c565b820191906000526020600020905b815481529060010190602001808311610c3f57829003601f168201915b505050505090806005015490806006018054600181600116156101000203166002900480601f016020809104026020016040519081016040528092919081815260200182805460018160011615610100020316600290048015610d005780601f10610cd557610100808354040283529160200191610d00565b820191906000526020600020905b815481529060010190602001808311610ce357829003601f168201915b5050505050908060070160009054906101000a900460ff16905088565b6000151560008084815260200190815260200160002060070160009054906101000a900460ff161515141515610d5257600080fd5b8060008084815260200190815260200160002060050181905550600160008084815260200190815260200160002060070160006101000a81548160ff0219169083151502179055505050565b6060600080600154111515610db257600080fd5b600083118015610dc457506001548311155b1515610dcf57600080fd5b600080848152602001908152602001600020905060018160070160006101000a81548160ff02191690831515021790551515610e0a57600080fd5b8060010160009054906101000a900473ffffffffffffffffffffffffffffffffffffffff1673ffffffffffffffffffffffffffffffffffffffff163373ffffffffffffffffffffffffffffffffffffffff1614151515610e6957600080fd5b806005015434141515610e7b57600080fd5b8060010160009054906101000a900473ffffffffffffffffffffffffffffffffffffffff1673ffffffffffffffffffffffffffffffffffffffff166108fc349081150290604051600060405180830381858888f19350505050158015610ee5573d6000803e3d6000fd5b50806006018054600181600116156101000203166002900480601f016020809104026020016040519081016040528092919081815260200182805460018160011615610100020316600290048015610f7e5780601f10610f5357610100808354040283529160200191610f7e565b820191906000526020600020905b815481529060010190602001808311610f6157829003601f168201915b5050505050915050919050565b828054600181600116156101000203166002900490600052602060002090601f016020900481019282601f10610fcc57805160ff1916838001178555610ffa565b82800160010185558215610ffa579182015b82811115610ff9578251825591602001919060010190610fde565b5b509050611007919061100b565b5090565b61102d91905b80821115611029576000816000905550600101611011565b5090565b90565b600061103c82356114bf565b905092915050565b600082601f830112151561105757600080fd5b813561106a61106582611422565b6113f5565b9150808252602083016020830185838301111561108657600080fd5b6110918382846114e9565b50505092915050565b60006110a682356114df565b905092915050565b6000602082840312156110c057600080fd5b60006110ce84828501611030565b91505092915050565b600080604083850312156110ea57600080fd5b60006110f885828601611030565b92505060206111098582860161109a565b9150509250929050565b60008060006060848603121561112857600080fd5b600084013567ffffffffffffffff81111561114257600080fd5b61114e86828701611044565b935050602084013567ffffffffffffffff81111561116b57600080fd5b61117786828701611044565b925050604084013567ffffffffffffffff81111561119457600080fd5b6111a086828701611044565b9150509250925092565b6000602082840312156111bc57600080fd5b60006111ca8482850161109a565b91505092915050565b600080604083850312156111e657600080fd5b60006111f48582860161109a565b92505060206112058582860161109a565b9150509250929050565b61121881611489565b82525050565b60006112298261145b565b80845260208401935061123b8361144e565b60005b8281101561126d576112518683516112f4565b61125a8261147c565b915060208601955060018101905061123e565b50849250505092915050565b611282816114a9565b82525050565b600061129382611471565b8084526112a78160208601602086016114f8565b6112b08161152b565b602085010191505092915050565b60006112c982611466565b8084526112dd8160208601602086016114f8565b6112e68161152b565b602085010191505092915050565b6112fd816114b5565b82525050565b6000602082019050818103600083015261131d818461121e565b905092915050565b6000602082019050818103600083015261133f8184611288565b905092915050565b600060208201905061135c60008301846112f4565b92915050565b600061010082019050611378600083018b6112f4565b611385602083018a61120f565b611392604083018961120f565b81810360608301526113a481886112be565b905081810360808301526113b881876112be565b90506113c760a08301866112f4565b81810360c08301526113d981856112be565b90506113e860e0830184611279565b9998505050505050505050565b6000604051905081810181811067ffffffffffffffff8211171561141857600080fd5b8060405250919050565b600067ffffffffffffffff82111561143957600080fd5b601f19601f8301169050602081019050919050565b6000602082019050919050565b600081519050919050565b600081519050919050565b600081519050919050565b6000602082019050919050565b600073ffffffffffffffffffffffffffffffffffffffff82169050919050565b60008115159050919050565b6000819050919050565b600073ffffffffffffffffffffffffffffffffffffffff82169050919050565b6000819050919050565b82818337600083830152505050565b60005b838110156115165780820151818401526020810190506114fb565b83811115611525576000848401525b50505050565b6000601f19601f83011690509190505600a265627a7a72305820b77ddb4e97477ed85c55c16938515c12d7d75402a5939c4030f9474c7066596a6c6578706572696d656e74616cf50037",
  "source": "pragma solidity ^0.4.19;\npragma experimental ABIEncoderV2;\n\ncontract ChainList {\n  // Healthcare Data struct\n  struct HealthData {\n    uint id;\n    address seller;\n    address buyer;\n    string name;\n    string description;\n    uint256 price;\n    string ipfsAddress;\n    bool isForSale;\n  }\n\n  // list of data for sale\n  mapping (uint => HealthData) public dataList;\n  uint dataCounter;\n\n  mapping(address => HealthData[]) public dataListByAccount;\n\n  // events\n  event LogSellData(\n    uint indexed _id,\n    address indexed _seller,\n    string _name,\n    uint256 _price,\n    string _ipfsAddress\n  );\n  event LogBuyData(\n    uint indexed _id,\n    address indexed _seller,\n    address indexed _buyer,\n    string _name,\n    uint256 _price,\n    string _ipfsAddress\n  ); \n\n  // store ipfsAddress with data name and description into ethereum\n  function uploadData(string _name, string _description, string _ipfsAddress) public {\n   dataCounter++;\n\n   dataList[dataCounter] = HealthData(\n     dataCounter,\n     msg.sender,\n     0x0,\n     _name,\n     _description,\n     0x0,\n     _ipfsAddress,\n     false\n   );\n\n   dataListByAccount[msg.sender].push(HealthData(\n     dataCounter,\n     msg.sender,\n     0x0,\n     _name,\n     _description,\n     0x0,\n     _ipfsAddress,\n     false));\n  }\n\n  uint[] currentUserIdList;\n\n\n  function getAllMyData(address currentUser) public constant returns (uint[]) {    \n    for(uint i = 1; i <= dataCounter;  i++) {\n      if (dataList[i].seller == currentUser){\n        currentUserIdList.push(i);\n      }\n    }\n    return currentUserIdList;\n  }\n\n  function sellData(uint _id, uint256 _price) public { \n    require(dataList[_id].isForSale == false);\n    dataList[_id].price = _price; \n    dataList[_id].isForSale = true; \n  }\n\n  // fetch the number of data in the contract\n  function getNumberOfData() public view returns (uint) {\n    return dataCounter;\n  }\n\n  // fetch and return all data IDs for data with isForSale being true\n  function getDataForSale() public view returns (uint[]) {\n    // prepare output array\n    uint[] memory dataIds = new uint[](dataCounter);\n\n    uint numberOfDataForSale = 0;\n    // iterate over data\n    for(uint i = 1; i <= dataCounter;  i++) {\n      if(dataList[i].isForSale == true) {\n        dataIds[numberOfDataForSale] = dataList[i].id;\n        numberOfDataForSale++;\n      }\n    }\n\n    // copy the data Ids array into a smaller forSale array\n    uint[] memory forSale = new uint[](numberOfDataForSale);\n    for(uint j = 0; j < numberOfDataForSale; j++) {\n      forSale[j] = dataIds[j];\n    }\n    return forSale;\n  }\n\n  function buyData(uint _id) payable public returns(string) {\n    // we check whether there is data for sale\n    require(dataCounter > 0);\n\n    // we check that the article exists\n    require(_id > 0 && _id <= dataCounter);\n\n    // we retrieve the article\n    HealthData storage data = dataList[_id];\n\n    require(data.isForSale = true);\n\n    require(msg.sender != data.seller);\n\n    // we check that the value sent corresponds to the price of the data\n    require(msg.value == data.price);\n\n    // the buyer can pay the seller\n    data.seller.transfer(msg.value);\n    \n    return data.ipfsAddress;\n    // trigger the event\n    //LogBuyData(_id, data.seller, data.buyer, data.name, data.price, data.ipfsAddress);\n  }\n}\n\n",
  "sourcePath": "/Users/Lee/amrita-mvp/contracts/ChainList.sol",
  "compiler": {
    "name": "solc",
    "version": "0.4.24+commit.e67f0147.Emscripten.clang"
  },
  "schemaVersion": "2.0.0",
  "updatedAt": "2018-05-31T04:24:14.069Z"
}