{
  "contractName": "ChainList",
  "abi": [
    {
      "constant": true,
      "inputs": [
        {
          "name": "",
          "type": "address"
        },
        {
          "name": "",
          "type": "uint256"
        }
      ],
      "name": "dataListByAccount",
      "outputs": [
        {
          "name": "id",
          "type": "uint256"
        },
        {
          "name": "seller",
          "type": "address"
        },
        {
          "name": "buyer",
          "type": "address"
        },
        {
          "name": "name",
          "type": "string"
        },
        {
          "name": "description",
          "type": "string"
        },
        {
          "name": "price",
          "type": "uint256"
        },
        {
          "name": "ipfsAddress",
          "type": "string"
        },
        {
          "name": "isForSale",
          "type": "bool"
        },
        {
          "name": "dataType",
          "type": "uint8"
        },
        {
          "name": "key",
          "type": "string"
        },
        {
          "name": "extension",
          "type": "string"
        }
      ],
      "payable": false,
      "stateMutability": "view",
      "type": "function"
    },
    {
      "constant": true,
      "inputs": [
        {
          "name": "",
          "type": "uint256"
        }
      ],
      "name": "dataList",
      "outputs": [
        {
          "name": "id",
          "type": "uint256"
        },
        {
          "name": "seller",
          "type": "address"
        },
        {
          "name": "buyer",
          "type": "address"
        },
        {
          "name": "name",
          "type": "string"
        },
        {
          "name": "description",
          "type": "string"
        },
        {
          "name": "price",
          "type": "uint256"
        },
        {
          "name": "ipfsAddress",
          "type": "string"
        },
        {
          "name": "isForSale",
          "type": "bool"
        },
        {
          "name": "dataType",
          "type": "uint8"
        },
        {
          "name": "key",
          "type": "string"
        },
        {
          "name": "extension",
          "type": "string"
        }
      ],
      "payable": false,
      "stateMutability": "view",
      "type": "function"
    },
    {
      "anonymous": false,
      "inputs": [
        {
          "indexed": true,
          "name": "_id",
          "type": "uint256"
        },
        {
          "indexed": true,
          "name": "_seller",
          "type": "address"
        },
        {
          "indexed": false,
          "name": "_name",
          "type": "string"
        },
        {
          "indexed": false,
          "name": "_price",
          "type": "uint256"
        },
        {
          "indexed": false,
          "name": "_ipfsAddress",
          "type": "string"
        }
      ],
      "name": "LogSellData",
      "type": "event"
    },
    {
      "anonymous": false,
      "inputs": [
        {
          "indexed": true,
          "name": "_id",
          "type": "uint256"
        },
        {
          "indexed": true,
          "name": "_seller",
          "type": "address"
        },
        {
          "indexed": true,
          "name": "_buyer",
          "type": "address"
        },
        {
          "indexed": false,
          "name": "_name",
          "type": "string"
        },
        {
          "indexed": false,
          "name": "_price",
          "type": "uint256"
        },
        {
          "indexed": false,
          "name": "_ipfsAddress",
          "type": "string"
        }
      ],
      "name": "LogBuyData",
      "type": "event"
    },
    {
      "constant": false,
      "inputs": [
        {
          "name": "_name",
          "type": "string"
        },
        {
          "name": "_description",
          "type": "string"
        },
        {
          "name": "_dataType",
          "type": "uint8"
        },
        {
          "name": "_ipfsAddress",
          "type": "string"
        },
        {
          "name": "_key",
          "type": "string"
        },
        {
          "name": "_extension",
          "type": "string"
        }
      ],
      "name": "uploadData",
      "outputs": [],
      "payable": false,
      "stateMutability": "nonpayable",
      "type": "function"
    },
    {
      "constant": true,
      "inputs": [
        {
          "name": "currentUser",
          "type": "address"
        }
      ],
      "name": "getAllMyData",
      "outputs": [
        {
          "name": "",
          "type": "uint256[]"
        }
      ],
      "payable": false,
      "stateMutability": "view",
      "type": "function"
    },
    {
      "constant": false,
      "inputs": [
        {
          "name": "_id",
          "type": "uint256"
        },
        {
          "name": "_price",
          "type": "uint256"
        }
      ],
      "name": "sellData",
      "outputs": [],
      "payable": false,
      "stateMutability": "nonpayable",
      "type": "function"
    },
    {
      "constant": true,
      "inputs": [],
      "name": "getNumberOfData",
      "outputs": [
        {
          "name": "",
          "type": "uint256"
        }
      ],
      "payable": false,
      "stateMutability": "view",
      "type": "function"
    },
    {
      "constant": true,
      "inputs": [],
      "name": "getDataForSale",
      "outputs": [
        {
          "name": "",
          "type": "uint256[]"
        }
      ],
      "payable": false,
      "stateMutability": "view",
      "type": "function"
    },
    {
      "constant": false,
      "inputs": [
        {
          "name": "_id",
          "type": "uint256"
        }
      ],
      "name": "buyData",
      "outputs": [],
      "payable": true,
      "stateMutability": "payable",
      "type": "function"
    }
  ],
  "bytecode": "0x608060405234801561001057600080fd5b50611912806100206000396000f30060806040526004361061008e576000357c0100000000000000000000000000000000000000000000000000000000900463ffffffff1680635666f9ac14610093578063612d4ea2146100be57806371404489146100e957806386089bb614610130578063af4a74cf1461016d578063b916b5bf146101b4578063ca209dce146101dd578063feff8dfa146101f9575b600080fd5b34801561009f57600080fd5b506100a8610222565b6040516100b59190611672565b60405180910390f35b3480156100ca57600080fd5b506100d361022c565b6040516100e09190611650565b60405180910390f35b3480156100f557600080fd5b50610110600480360361010b91908101906113e1565b610380565b6040516101279b9a9998979695949392919061168d565b60405180910390f35b34801561013c57600080fd5b50610157600480360361015291908101906113b8565b610748565b6040516101649190611650565b60405180910390f35b34801561017957600080fd5b50610194600480360361018f919081019061151e565b610858565b6040516101ab9b9a9998979695949392919061168d565b60405180910390f35b3480156101c057600080fd5b506101db60048036036101d69190810190611547565b610c04565b005b6101f760048036036101f2919081019061151e565b610c85565b005b34801561020557600080fd5b50610220600480360361021b919081019061141d565b610dcf565b005b6000600154905090565b606080600080606060006001546040519080825280602002602001820160405280156102675781602001602082028038833980820191505090505b50945060009350600192505b600154831115156102f5576001151560008085815260200190815260200160002060070160009054906101000a900460ff16151514156102e8576000808481526020019081526020016000206000015485858151811015156102d157fe5b906020019060200201818152505083806001019450505b8280600101935050610273565b836040519080825280602002602001820160405280156103245781602001602082028038833980820191505090505b509150600090505b8381101561037557848181518110151561034257fe5b90602001906020020151828281518110151561035a57fe5b9060200190602002018181525050808060010191505061032c565b819550505050505090565b60026020528160005260406000208181548110151561039b57fe5b90600052602060002090600a0201600091509150508060000154908060010160009054906101000a900473ffffffffffffffffffffffffffffffffffffffff16908060020160009054906101000a900473ffffffffffffffffffffffffffffffffffffffff1690806003018054600181600116156101000203166002900480601f01602080910402602001604051908101604052809291908181526020018280546001816001161561010002031660029004801561049a5780601f1061046f5761010080835404028352916020019161049a565b820191906000526020600020905b81548152906001019060200180831161047d57829003601f168201915b505050505090806004018054600181600116156101000203166002900480601f0160208091040260200160405190810160405280929190818152602001828054600181600116156101000203166002900480156105385780601f1061050d57610100808354040283529160200191610538565b820191906000526020600020905b81548152906001019060200180831161051b57829003601f168201915b505050505090806005015490806006018054600181600116156101000203166002900480601f0160208091040260200160405190810160405280929190818152602001828054600181600116156101000203166002900480156105dc5780601f106105b1576101008083540402835291602001916105dc565b820191906000526020600020905b8154815290600101906020018083116105bf57829003601f168201915b5050505050908060070160009054906101000a900460ff16908060070160019054906101000a900460ff1690806008018054600181600116156101000203166002900480601f0160208091040260200160405190810160405280929190818152602001828054600181600116156101000203166002900480156106a05780601f10610675576101008083540402835291602001916106a0565b820191906000526020600020905b81548152906001019060200180831161068357829003601f168201915b505050505090806009018054600181600116156101000203166002900480601f01602080910402602001604051908101604052809291908181526020018280546001816001161561010002031660029004801561073e5780601f106107135761010080835404028352916020019161073e565b820191906000526020600020905b81548152906001019060200180831161072157829003601f168201915b505050505090508b565b60606000600190505b600154811115156107ff578273ffffffffffffffffffffffffffffffffffffffff1660008083815260200190815260200160002060010160009054906101000a900473ffffffffffffffffffffffffffffffffffffffff1673ffffffffffffffffffffffffffffffffffffffff1614156107f25760038190806001815401808255809150509060018203906000526020600020016000909192909190915055505b8080600101915050610751565b600380548060200260200160405190810160405280929190818152602001828054801561084b57602002820191906000526020600020905b815481526020019060010190808311610837575b5050505050915050919050565b60006020528060005260406000206000915090508060000154908060010160009054906101000a900473ffffffffffffffffffffffffffffffffffffffff16908060020160009054906101000a900473ffffffffffffffffffffffffffffffffffffffff1690806003018054600181600116156101000203166002900480601f0160208091040260200160405190810160405280929190818152602001828054600181600116156101000203166002900480156109565780601f1061092b57610100808354040283529160200191610956565b820191906000526020600020905b81548152906001019060200180831161093957829003601f168201915b505050505090806004018054600181600116156101000203166002900480601f0160208091040260200160405190810160405280929190818152602001828054600181600116156101000203166002900480156109f45780601f106109c9576101008083540402835291602001916109f4565b820191906000526020600020905b8154815290600101906020018083116109d757829003601f168201915b505050505090806005015490806006018054600181600116156101000203166002900480601f016020809104026020016040519081016040528092919081815260200182805460018160011615610100020316600290048015610a985780601f10610a6d57610100808354040283529160200191610a98565b820191906000526020600020905b815481529060010190602001808311610a7b57829003601f168201915b5050505050908060070160009054906101000a900460ff16908060070160019054906101000a900460ff1690806008018054600181600116156101000203166002900480601f016020809104026020016040519081016040528092919081815260200182805460018160011615610100020316600290048015610b5c5780601f10610b3157610100808354040283529160200191610b5c565b820191906000526020600020905b815481529060010190602001808311610b3f57829003601f168201915b505050505090806009018054600181600116156101000203166002900480601f016020809104026020016040519081016040528092919081815260200182805460018160011615610100020316600290048015610bfa5780601f10610bcf57610100808354040283529160200191610bfa565b820191906000526020600020905b815481529060010190602001808311610bdd57829003601f168201915b505050505090508b565b6000151560008084815260200190815260200160002060070160009054906101000a900460ff161515141515610c3957600080fd5b8060008084815260200190815260200160002060050181905550600160008084815260200190815260200160002060070160006101000a81548160ff0219169083151502179055505050565b600080600154111515610c9757600080fd5b600082118015610ca957506001548211155b1515610cb457600080fd5b600080838152602001908152602001600020905060018160070160006101000a81548160ff02191690831515021790551515610cef57600080fd5b8060010160009054906101000a900473ffffffffffffffffffffffffffffffffffffffff1673ffffffffffffffffffffffffffffffffffffffff163373ffffffffffffffffffffffffffffffffffffffff1614151515610d4e57600080fd5b806005015434141515610d6057600080fd5b8060010160009054906101000a900473ffffffffffffffffffffffffffffffffffffffff1673ffffffffffffffffffffffffffffffffffffffff166108fc349081150290604051600060405180830381858888f19350505050158015610dca573d6000803e3d6000fd5b505050565b6001600081548092919060010191905055506101606040519081016040528060015481526020013373ffffffffffffffffffffffffffffffffffffffff168152602001600073ffffffffffffffffffffffffffffffffffffffff16815260200187815260200186815260200160008152602001848152602001600015158152602001856001811115610e5d57fe5b81526020018381526020018281525060008060015481526020019081526020016000206000820151816000015560208201518160010160006101000a81548173ffffffffffffffffffffffffffffffffffffffff021916908373ffffffffffffffffffffffffffffffffffffffff16021790555060408201518160020160006101000a81548173ffffffffffffffffffffffffffffffffffffffff021916908373ffffffffffffffffffffffffffffffffffffffff1602179055506060820151816003019080519060200190610f34929190611281565b506080820151816004019080519060200190610f51929190611281565b5060a0820151816005015560c0820151816006019080519060200190610f78929190611281565b5060e08201518160070160006101000a81548160ff0219169083151502179055506101008201518160070160016101000a81548160ff02191690836001811115610fbe57fe5b0217905550610120820151816008019080519060200190610fe0929190611281565b50610140820151816009019080519060200190610ffe929190611281565b50905050600260003373ffffffffffffffffffffffffffffffffffffffff1673ffffffffffffffffffffffffffffffffffffffff1681526020019081526020016000206101606040519081016040528060015481526020013373ffffffffffffffffffffffffffffffffffffffff168152602001600073ffffffffffffffffffffffffffffffffffffffff168152602001888152602001878152602001600081526020018581526020016000151581526020018660018111156110bd57fe5b8152602001848152602001838152509080600181540180825580915050906001820390600052602060002090600a0201600090919290919091506000820151816000015560208201518160010160006101000a81548173ffffffffffffffffffffffffffffffffffffffff021916908373ffffffffffffffffffffffffffffffffffffffff16021790555060408201518160020160006101000a81548173ffffffffffffffffffffffffffffffffffffffff021916908373ffffffffffffffffffffffffffffffffffffffff16021790555060608201518160030190805190602001906111ab929190611281565b5060808201518160040190805190602001906111c8929190611281565b5060a0820151816005015560c08201518160060190805190602001906111ef929190611281565b5060e08201518160070160006101000a81548160ff0219169083151502179055506101008201518160070160016101000a81548160ff0219169083600181111561123557fe5b0217905550610120820151816008019080519060200190611257929190611281565b50610140820151816009019080519060200190611275929190611281565b50505050505050505050565b828054600181600116156101000203166002900490600052602060002090601f016020900481019282601f106112c257805160ff19168380011785556112f0565b828001600101855582156112f0579182015b828111156112ef5782518255916020019190600101906112d4565b5b5090506112fd9190611301565b5090565b61132391905b8082111561131f576000816000905550600101611307565b5090565b90565b60006113328235611830565b905092915050565b60006113468235611850565b905092915050565b600082601f830112151561136157600080fd5b813561137461136f82611788565b61175b565b9150808252602083016020830185838301111561139057600080fd5b61139b838284611885565b50505092915050565b60006113b08235611869565b905092915050565b6000602082840312156113ca57600080fd5b60006113d884828501611326565b91505092915050565b600080604083850312156113f457600080fd5b600061140285828601611326565b9250506020611413858286016113a4565b9150509250929050565b60008060008060008060c0878903121561143657600080fd5b600087013567ffffffffffffffff81111561145057600080fd5b61145c89828a0161134e565b965050602087013567ffffffffffffffff81111561147957600080fd5b61148589828a0161134e565b955050604061149689828a0161133a565b945050606087013567ffffffffffffffff8111156114b357600080fd5b6114bf89828a0161134e565b935050608087013567ffffffffffffffff8111156114dc57600080fd5b6114e889828a0161134e565b92505060a087013567ffffffffffffffff81111561150557600080fd5b61151189828a0161134e565b9150509295509295509295565b60006020828403121561153057600080fd5b600061153e848285016113a4565b91505092915050565b6000806040838503121561155a57600080fd5b6000611568858286016113a4565b9250506020611579858286016113a4565b9150509250929050565b61158c816117e4565b82525050565b600061159d826117c1565b8084526020840193506115af836117b4565b60005b828110156115e1576115c5868351611641565b6115ce826117d7565b91506020860195506001810190506115b2565b50849250505092915050565b6115f681611804565b82525050565b61160581611873565b82525050565b6000611616826117cc565b80845261162a816020860160208601611894565b611633816118c7565b602085010191505092915050565b61164a81611826565b82525050565b6000602082019050818103600083015261166a8184611592565b905092915050565b60006020820190506116876000830184611641565b92915050565b6000610160820190506116a3600083018e611641565b6116b0602083018d611583565b6116bd604083018c611583565b81810360608301526116cf818b61160b565b905081810360808301526116e3818a61160b565b90506116f260a0830189611641565b81810360c0830152611704818861160b565b905061171360e08301876115ed565b6117216101008301866115fc565b818103610120830152611734818561160b565b9050818103610140830152611749818461160b565b90509c9b505050505050505050505050565b6000604051905081810181811067ffffffffffffffff8211171561177e57600080fd5b8060405250919050565b600067ffffffffffffffff82111561179f57600080fd5b601f19601f8301169050602081019050919050565b6000602082019050919050565b600081519050919050565b600081519050919050565b6000602082019050919050565b600073ffffffffffffffffffffffffffffffffffffffff82169050919050565b60008115159050919050565b600060028210151561181e57fe5b819050919050565b6000819050919050565b600073ffffffffffffffffffffffffffffffffffffffff82169050919050565b600060028210151561186157600080fd5b819050919050565b6000819050919050565b600061187e82611810565b9050919050565b82818337600083830152505050565b60005b838110156118b2578082015181840152602081019050611897565b838111156118c1576000848401525b50505050565b6000601f19601f83011690509190505600a265627a7a723058204200fe9e26e461f5623a7643392706e5b06f7a6cc8330eb7471c615e3884e91b6c6578706572696d656e74616cf50037",
  "source": "pragma solidity ^0.4.19;\npragma experimental ABIEncoderV2;\n\ncontract ChainList {\n  enum DataType {IMAGE, GENOMIC}\n  // Healthcare Data struct\n  struct HealthData {\n    uint id;\n    address seller;\n    address buyer;\n    string name;\n    string description;\n    uint256 price;\n    string ipfsAddress;\n    bool isForSale;\n    DataType dataType;\n    string key;\n    string extension;\n  }\n\n  // list of data for sale\n  mapping (uint => HealthData) public dataList;\n  uint dataCounter;\n\n  mapping(address => HealthData[]) public dataListByAccount;\n\n  // events\n  event LogSellData(\n    uint indexed _id,\n    address indexed _seller,\n    string _name,\n    uint256 _price,\n    string _ipfsAddress\n  );\n  event LogBuyData(\n    uint indexed _id,\n    address indexed _seller,\n    address indexed _buyer,\n    string _name,\n    uint256 _price,\n    string _ipfsAddress\n  ); \n\n  // store ipfsAddress with data name and description into ethereum\n  function uploadData(string _name, string _description, DataType _dataType, string _ipfsAddress, string _key, string _extension) public {\n   dataCounter++;\n\n   dataList[dataCounter] = HealthData(\n     dataCounter,\n     msg.sender,\n     0x0,\n     _name,\n     _description,\n     0x0,\n     _ipfsAddress,\n     false,\n     _dataType,\n     _key,\n     _extension\n   );\n\n   dataListByAccount[msg.sender].push(HealthData(\n     dataCounter,\n     msg.sender,\n     0x0,\n     _name,\n     _description,\n     0x0,\n     _ipfsAddress,\n     false,\n     _dataType,\n     _key,\n     _extension\n   ));\n  }\n\n  uint[] currentUserIdList;\n\n\n  function getAllMyData(address currentUser) public constant returns (uint[]) {    \n    for(uint i = 1; i <= dataCounter;  i++) {\n      if (dataList[i].seller == currentUser){\n        currentUserIdList.push(i);\n      }\n    }\n    return currentUserIdList;\n  }\n\n  function sellData(uint _id, uint256 _price) public { \n    require(dataList[_id].isForSale == false);\n    dataList[_id].price = _price; \n    dataList[_id].isForSale = true; \n  }\n\n  // fetch the number of data in the contract\n  function getNumberOfData() public view returns (uint) {\n    return dataCounter;\n  }\n\n  // fetch and return all data IDs for data with isForSale being true\n  function getDataForSale() public view returns (uint[]) {\n    // prepare output array\n    uint[] memory dataIds = new uint[](dataCounter);\n\n    uint numberOfDataForSale = 0;\n    // iterate over data\n    for(uint i = 1; i <= dataCounter;  i++) {\n      if(dataList[i].isForSale == true) {\n        dataIds[numberOfDataForSale] = dataList[i].id;\n        numberOfDataForSale++;\n      }\n    }\n\n    // copy the data Ids array into a smaller forSale array\n    uint[] memory forSale = new uint[](numberOfDataForSale);\n    for(uint j = 0; j < numberOfDataForSale; j++) {\n      forSale[j] = dataIds[j];\n    }\n    return forSale;\n  }\n\n  function buyData(uint _id) payable public {\n    // we check whether there is data for sale\n    require(dataCounter > 0);\n\n    // we check that the data exists\n    require(_id > 0 && _id <= dataCounter);\n\n    // we retrieve the data\n    HealthData storage data = dataList[_id];\n\n    require(data.isForSale = true);\n\n    require(msg.sender != data.seller);\n\n    // we check that the value sent corresponds to the price of the data\n    require(msg.value == data.price);\n\n    // the buyer can pay the seller\n    data.seller.transfer(msg.value);\n  }\n}",
  "sourcePath": "/Users/Lee/amrita-mvp/contracts/ChainList.sol",
  "compiler": {
    "name": "solc",
    "version": "0.4.24+commit.e67f0147.Emscripten.clang"
  },
  "schemaVersion": "2.0.0",
  "updatedAt": "2018-06-14T03:31:43.871Z"
}